:020000040800F2
:1000000000500020C5010008C9010008CB0100080C
:10001000090200080B02000821020008000000008D
:10002000000000000000000000000000370200088F
:1000300039020008000000003B02000829140008F3
:100040005102000851020008510200085102000844
:100050005102000851020008510200085102000834
:100060005102000851020008510200085102000824
:100070005102000851020008510200085102000814
:100080005102000851020008510200085102000804
:10009000F50300085102000851020008510200084F
:1000A00051020008510200085102000851020008E4
:1000B00051020008192400085102000851020008EA
:1000C00051020008510200085102000851020008C4
:1000D00051020008510200085102000851020008B4
:1000E0005102000851020008F90300080000000056
:1000F0000000000000000000000000000000000000
:1001000000000000000000005FF808F107B501F0F2
:1001100043F8214A214B22498B4226D30021214B0F
:10012000214A934226D301F043F801A9684600F022
:10013000CDFF00251D4E1E4CA41BA410AC421CDCA0
:1001400000251C4E1C4CA41BA410AC421ADCDDE99B
:10015000000102F0BFF90646184D194C641BA410AB
:10016000002C14DC304600F04FFF52F8040F43F827
:10017000040BD1E743F8041BD3E756F82530984722
:100180000135DBE756F8253098470135DDE7013CBE
:1001900055F824309847E3E7E8BA0008000000204B
:1001A0003410002034100020E82200207C020008D7
:1001B0007C0200087C0200087C0200087C02000827
:1001C0007C0200081E480047FEE71EF0040F0CBF2B
:1001D000EFF30880EFF3098071461A4A104710B513
:1001E000084C236B9B070BD5E36A002B08DA4BF610
:1001F000AB6100F0DFFF18B14FF00043E36210BDC8
:10020000FEE700BF00ED00E0FEE71EF0040F0CBFAC
:10021000EFF30880EFF3098071460B4A1047FEE7C1
:100220001EF0040F0CBFEFF30880EFF30980714656
:10023000064A1047FEE7FEE7FEE7FEE770470000CC
:100240000D010008DF0100081F0200083502000848
:02025000FEE7C7
:10025400ECBA00080000002034100020ECBA0008BA
:10026400000000000000000034100020E8220020FC
:08027400000000000000000082
:10028000002370B51E46050FECB2092D94BF303423
:10029000373401F8134001EB430401336670DCB2DC
:1002A000A2424FEA0010EED870BD000013B5012144
:1002B000042000F055FD4FF4C0530324ADF8043082
:1002C000182301A90E488DF807308DF8064000F07C
:1002D00097FB01213C2000F043FD0423ADF80430DE
:1002E000142301A907488DF807308DF8064000F067
:1002F00087FB0121082000F033FD02B010BD00BFD4
:1003000000080140000C014008B5012000F0C2FCCB
:10031000BDE8084001214FF4000000F02DBD07B5F5
:100320004FF4A06000F010FB4FF40573ADF80430FB
:1003300000238DF80630012301A88DF8073000F066
:100340000DFB4FF4957301A8ADF8043000F006FBE7
:1003500003B05DF804FB0000042110B1024800F076
:10036000AABB014800F0A5BB000C01400A4B10B528
:10037000186808331B68C0180CD0084B08221C688A
:100380000749FFF77DFF2046BDE8104004220549DC
:10039000FFF776BF10BD00BFE8F7FF1FECF7FF1FA8
:1003A00002000020120000203F2910B54FF000038A
:1003B0000FD8094A8CB21360C021224604F018FA03
:1003C0002146012004F028FB012004F08AFA0120D4
:1003D00010BD1846FCE700BF88060020002208B5C3
:1003E000034B03201A6004F08FFA012008BD00BF00
:1003F0008406002000F024B8704700000122014B61
:100400001A60704788060020012238B5094B032086
:100410001A6004F02FFB084D084C286002464FF488
:100420008871204604F0F3F929682046BDE8384079
:1004300003F042BC8406002058220020092200203C
:1004400070B5514C514D2368514E9BB22B802B8877
:10045000328888B013409B0507D54FF6FF534D49AE
:1004600023600B780133DBB20B702B881A40100429
:1004700001D504F0FDF82B8832881340590505D5C5
:100480004FF6FF332360444B5B6898472A883388D4
:100490001A40920444BF4DF6FF7222602A8813402E
:1004A000D80405D54EF6FF730020236000F0FAF95A
:1004B0002B8832881340190508D5384B1B78002B40
:1004C0005CD000F0A1F94FF2FF73236032882B88D3
:1004D0001340DA0556D54FF6FF632360304B3148A1
:1004E0001B6813F4004F41D00368013303600368B5
:1004F000032B3DD92C490B6813F0080338D10D6844
:100500002A4AADB2156003F1805505F5B855AD0026
:100510002D6808AE06EB83060133ADB2082B46F812
:10052000205CF0D1136843F00103136013689BB2A1
:100530000B60136823F00103136013689BB20B6018
:1005400023685B05FCD54FF6FF332360002308AA20
:1005500002EB830252F8201C03F1805202F5B852DC
:100560000133920089B2082B1160F0D1002303609F
:10057000072008B0BDE8704000F094B9022000F0F8
:1005800091F9A0E708B070BD445C00405C220020F7
:10059000BC2200203410002064000020E400002071
:1005A000485C004038100020405C00403C100020B7
:1005B000034B9B7A13B10522024B1A60704700BFB0
:1005C00098220020441000200422014B1A6070473A
:1005D00044100020034B1A78202A04BF00221A700E
:1005E000704700BF4010002070470000212810B560
:1005F00008D1104B1B681B7803F07F03212B16D00A
:10060000022013E02028FBD10A4B1B681B7803F063
:100610007F03212B084B1870F2D1084B0024054AA8
:1006200020461268936154829847204610BD044BBF
:10063000F4E700BFB8220020401000209106000817
:1006400079060008074B1B681B7803F07F03212BFA
:1006500006D100F0DF00022814BF022000207047FE
:1006600002207047B822002021B901288CBF022047
:10067000002070470220704720B90822024B1B68F7
:100680001A82704701487047B8220020DC00002021
:10069000FFF7F2BF10B50024FFF768FE044B1B689C
:1006A0009C7200F095F804F0FBF9024B1C6010BD41
:1006B000B82200204410002010B50024324B334AE9
:1006C0001B68D2795C815A72204604F0B9F84FF465
:1006D0000071204604F0BCF81021204604F0C6F852
:1006E0004021204604F06CF98021204604F058F99E
:1006F000204604F02CF9264B204693F82C1004F0E9
:1007000099F9204604F000F92146012004F0A0F8F0
:10071000C021012004F044F92021012004F0A6F8B2
:100720002146012004F0BBF84FF4C061022004F020
:100730008FF84FF48071022004F032F92146022034
:1007400004F0ADF82021022004F090F821460320A7
:1007500004F07EF84FF48871032004F031F9402151
:10076000032004F067F94FF44051032004F097F898
:100770002146032004F07AF8204603F00FFF0122FF
:10078000044B1A6010BD00BFB8220020509F000823
:100790006400002044100020014903F0FBBC00BFAE
:1007A0005C000020014903F0F5BC00BF54000020AC
:1007B000054B1B68DB78032B04D8044901EBC3010C
:1007C00003F0E8BC00207047B82200209800002009
:1007D00070B50120FFF7C0FD01230024074D084E2E
:1007E0002B60084B348020462C601B6804F022F8F4
:1007F0004FF4E053204633802B6070BD405C0040D6
:10080000BC220020445C004030B51D4C0021254630
:100810001C4A13689BB201F1805000F5B85080006B
:10082000006880B244F8210001310829F3D143F473
:10083000806123F0010311609BB241F0010111605E
:1008400043F480611160104908684005FCD54FF6FB
:10085000FF300860002155F8214001F1805000F57B
:10086000B85001318000A4B208290460F3D143F4E8
:100870008163136013689BB243F00403136030BDBF
:1008800064220020405C0040445C00404FF6FB7254
:10089000034B19680A401A604FF43F421A607047D0
:1008A000405C004010B5254C072818BF2070237805
:1008B000052B09D8DFE803F0030D1519222D204B75
:1008C0001B681BB9FFF7E2FF062300E00523237036
:1008D00006E0FFF7DBFF042301222370184B1A60A8
:1008E00010BD022363700323F1E76378013BDBB2A1
:1008F00063706378002BF3D10423E8E7114A13688F
:100900009BB243F010031360052323700A23637026
:10091000E6E76378013BDBB26370637803F0FF01C5
:10092000002BDDD14FF6EF73064A106803401360C9
:1009300006232370024B1960D2E700BF602200201B
:1009400048100020405C004040F0BF60024B40F483
:100950000030D860704700BF00ED00E070B50125A1
:10096000017801F01F039D40C3784C09C3B10F4BC0
:10097000DA684378D243C2F30222C2F1040603FAD2
:1009800006F683780F2020FA02F213403343084A18
:100990001B01DBB2114481F8003342F8245070BDD2
:1009A000034B203443F82450F9E700BF00ED00E08A
:1009B00000E100E008B5012000F0EAF9BDE80840D8
:1009C000002000F0E5B90000002382B00193044B41
:1009D0000193019B18440190019B196002B070477C
:1009E000006C0040002382B00193044B0193019BF3
:1009F00018440190019B188802B07047006C0040B9
:100A0000CA782DE9F041D30648BF8B780E8802F0F2
:100A10000F0548BF1D4316F0FF0F1AD000214FF0FD
:100A2000010C4FF00F0E03680CFA01F737EA0604C9
:100A30000BD18C000EFA04F823EA080305FA04F43B
:100A4000282A43EA040326D1476101310829EBD162
:100A50000360FF2E1DD908244FF0010C4FF00F0E3C
:100A600041680CFA04F737EA06030ED104F180431B
:100A7000083B9B000EFA03F821EA080105FA03F38C
:100A8000282A41EA03010AD147610134102CE8D138
:100A90004160BDE8F081482A08BF0761D5E7482AD0
:100AA00008BF0761F1E78368194214BF01200020E5
:100AB0007047016170474161704700000028164A85
:100AC00030B500F44015B4BFD3695368B5F5401F85
:100AD00084B210D1556823F0706325F070655560BD
:100AE00019B1420D1201944023430B4A0028B4BFB0
:100AF000D361536030BDC2024DBF0322420D1201CB
:100B0000C0F303454CBFAA4004FA02F223EA0203F1
:100B100043F07063E4E700BF0000014070B586B0A9
:100B20000446868801A80D4600F0D8F8039A2B49A0
:100B300026F03F06B2FBF1F13604360C88B20643CC
:100B4000A6802388264E23F001031B041B0C238060
:100B50002B68B3421ED85B00B2FBF3F39BB2042BAD
:100B600038BF0423013080B22084A3832388AA885D
:100B700043F0010323802388698923F481630A43B6
:100B800023F00203134323802A89AB891343238173
:100B900006B070BD4BF6FF70EE8886421BBF192071
:100BA000434303EB4303B2FBF3F30BBFB2FBF3F39B
:100BB0009BB29BB243F48043C3F30B020AB943F0E8
:100BC00001034FF496724A434FF47A7192FBF1F2AB
:100BD000013292B243F400432284C6E740420F0040
:100BE000A0860100038819B143F001030380704718
:100BF00023F001031B041B0CF8E7038819B143F42D
:100C000080730380704723F480731B041B0CF8E788
:100C1000038819B143F400730380704723F4007311
:100C20001B041B0CF8E70182704722B141F001015F
:100C300089B20182704701F0FE01F9E7838A008BD7
:100C400043EA004321F07F401840431A584258417C
:100C50007047002382B0009301930B0F0190009323
:100C6000009B21F07F4153B1019B14330193019B01
:100C70001B680B4214BF0120002002B07047019B8B
:100C8000090C1833F2E70000014B1860704700BFF1
:100C900020000E42014B1860704700BFD80042424E
:100CA0000022064B01281A701A7002D0042802D0C4
:100CB00070471870704705221A7070472010024064
:100CC000024A136A18431062704700BF00100240C6
:100CD000014B1860704700BF3C0442421B4A10B5EC
:100CE000536803F00C03082B1FD0194B03605368A3
:100CF000184CC3F30313E15C0368CB4043605168B5
:100D0000C1F30221615C23FA01F181605168C1F3F2
:100D1000C221615CCB40C36052680F49C2F381328B
:100D20008A5CB3FBF2F3036110BD53685168C3F3EF
:100D30008343CC0303F1020302D408494B43D5E7B4
:100D400051688903F9D40249F8E700BF0010024056
:100D500000127A00E9000020E500002000093D00B3
:100D6000044B9A6911B110439861704722EA000060
:100D7000FAE700BF00100240044BDA6911B11043DA
:100D8000D861704722EA0000FAE700BF0010024075
:100D9000014B1860704700BF400442424209012ADB
:100DA000074B07D11B6800F01F0023FA00F000F08A
:100DB00001007047022A0CBF1B6A5B6AF3E700BFA1
:100DC00000100240024A938843F01003938070475A
:100DD00000280040034A938823F010031B041B0CD7
:100DE0009380704700280040024B9A8B188B42EA90
:100DF000004070470028004008B5FFF7E3FF044BB0
:100E0000020C80B21A839883BDE80840FFF7E2BF66
:100E10000028004008B5FFF7D5FF054BC0F303429B
:100E200080B21A819881BDE80840FFF7D3BF00BFA8
:100E300000280040024A93889B06FCD5704700BFFB
:100E400000280040054A938823F008031B041B0C6C
:100E5000938093881B07FCD5704700BF0028004093
:100E6000224A038890429BB212D002F5006290425F
:100E70000ED0B0F1804F0BD0A2F59832904207D03F
:100E800002F58062904203D002F58062904203D165
:100E90004A8823F070031343154A904208D002F5A4
:100EA000806290421FBF23F44073CA889BB21343F1
:100EB00003808B8883850B8803850C4B98420FD069
:100EC00003F5006398420BD003F54063984207D0C6
:100ED00003F58063984203D003F58063984201D103
:100EE0000B7A038601238382704700BF002C0140E8
:100EF00000100040038C70B523F001031B041B0C91
:100F00000384038C8488028B0D8822F07302120400
:100F1000120C2A4323F002030D894E881B0435432B
:100F20001B0C2B43134DA4B2A8420FD005F500654E
:100F3000A8420BD005F54065A84207D005F58065AD
:100F4000A84203D005F58065A8420DD14D8923F054
:100F500008032B438D8823F004032B43CE898D890E
:100F600024F4407435432C4384800283CA888286EB
:100F7000038470BD002C0140038819B143F00103C4
:100F80000380704723F001031B041B0CF8E78389DF
:100F900012B119438181704723EA0101FAE7038BFB
:100FA00023F008031B041B0C194301837047038AB9
:100FB000828911EA030092B203D00A4214BF0120D1
:100FC00000207047C94389B2018270470B4A08B5B7
:100FD0001168034609B90A4911601068033323F008
:100FE0000303084903448B4206D904F05FFF0C2336
:100FF00003604FF0FF3008BD1360FCE74C10002089
:10100000E8220020004C0020054B064C00B50028CB
:1010100018BF1C46182528462146ABBE0446FEE7ED
:1010200023000200260002002DE9FF474FF00308CD
:101030000023DFF894900124CDF8049001AFCDF89F
:101040000C80029320463946ABBE054604231A4E57
:10105000CDF804903560CDF80C80029320463946D7
:10106000ABBE82460823154DCDF80490C5F800A00C
:10107000CDF80C80029320463946ABBE04460021D1
:101080004FF0FF300E4A1460013404BF2B68136028
:101090000C4B43F8310001311429FAD1316828682A
:1010A0001960002112685960C3E90201C3E90421F3
:1010B00004B0BDE8F08700BFCC100020D0100020A5
:1010C000C8100020D410002001A000084F232DE9F3
:1010D000F04F2F4D85B08146019102950393152461
:1010E00002AE20463146ABBE0446AA469CB1002360
:1010F00001268AF80030274BC3F800A00022254BB8
:1011000043F82620019AC9F800601360FFF78CFFAE
:1011100005B0BDE8F08FA0462646A346029F85F89D
:101120004F4097F9005015B9002EE0D0E6E7B8F12E
:10113000000F18D104F0C0FE284490F90120002AC5
:101140000FDB092D0DD0082ED8DC222D01D0272D44
:1011500001D12C4601374FF001080E4B43F82670A1
:1011600001360137DDE73CB1AC42FAD1002487F803
:1011700000B04FF00008F4E704F09EFE284490F918
:101180000120002A01DB092DEBD187F800B0F0E740
:1011900050100020A010002008B500F06DF8024AA1
:1011A000024B9A6008BD00BF0000000800ED00E09F
:1011B00000F0DAB838B5836904461B888B4252D1F7
:1011C000D0E90035013B302B4DD8DFE803F0304843
:1011D0001E1E444A484841414C4141414141484119
:1011E000484C41194C234C4C4C4C4C4C4C4C4C4CAA
:1011F0004C4C4C4C4C4C4C4C4C4C4C4C4C41410091
:101200000023C5E90033C5E902330120A369023395
:10121000A36138BDBFF34F8F1449154BCA6802F460
:10122000E0621343CB60BFF34F8F00BFFDE711496E
:10123000286805F0D9F958B96B68002BE5D0042B64
:1012400002D102232360E0E7082B01D10323F9E751
:101250004FF0FF33F6E72B68023B012B01D8002348
:10126000F0E7AB68EEE70020D3E700BF00ED00E059
:101270000400FA0501A00008374B82B01A6842F05A
:1012800001021A605968354A0A405A601A6822F009
:10129000847222F480321A601A6822F480221A6062
:1012A0005A6822F4FE025A604FF41F029A6000222C
:1012B000009201921A6842F480321A601A6802F4AD
:1012C00000320192009A01320092019A1AB9009AF2
:1012D000B2F5A06FF2D11A6812F4003218BF0122E1
:1012E0000192019A012A30D11D4A116841F0100182
:1012F0001160116821F003011160116841F00101D2
:1013000011605A685A605A685A605A6842F480629A
:101310005A605A6822F47C125A605A6842F4881261
:101320005A601A6842F080721A601A689201FCD5FD
:101330005A6822F003025A605A6842F002025A6068
:101340005A6802F00C02082AFAD14FF00062054BED
:101350009A6002B0704700BF001002400000FFF822
:101360000020024000ED00E0104B11495A6802F0E5
:101370000C02082A0AD00F4A0A605B680E4AC3F3BF
:101380000313D25C0B68D3400B6070475A685868EF
:10139000C2F38342C00302F1020202D4074842436F
:1013A000EAE758688003F9D40248F8E700100240E1
:1013B0000C01002000127A00F900002000093D0015
:1013C0004FF47A72094B1B68B3FBF2F3013BB3F1A4
:1013D000807F09D2F021064A5360064B83F8231020
:1013E0000023936007231360704700BF0C010020A7
:1013F00010E000E000ED00E0024B18601A68002ADF
:10140000FCD1704778110020054A1368013313603E
:10141000044B1A6812B11A68013A1A60704700BF8B
:101420007411002078110020FFF7EEBF2DE9F34181
:1014300001210420FFF794FC01210820FFF790FC14
:1014400001211020FFF78CFC01210220FFF794FC02
:1014500001214FF00408102503260846FFF780FC01
:10146000244C01212448FFF729FB244F0121244863
:10147000FFF724FB20460421FFF71DFB384604211B
:10148000FFF719FB38460821FFF713FB0DEB0801A6
:101490002046ADF804808DF807508DF80660FFF700
:1014A000AFFA0C230DEB08013846ADF804308DF887
:1014B00007508DF80660FFF7A3FAE0230DEB080153
:1014C0002046ADF804308DF807808DF80660FFF7F0
:1014D00097FA18230DEB080120468DF80730ADF878
:1014E0000450FFF78DFA01210648FFF7E7FA02B032
:1014F000BDE8F081000C014000013000000801400F
:101500000002300000081A0010B5012186B04FF427
:101510008000FFF731FC134A134B144CCDE9022332
:10152000134B02A904934FF480432046ADF81430C6
:10153000FFF7F4FA20460121FFF754FB01210820B0
:10154000FFF70EFC4FF44063ADF804301C238DF818
:101550000730022301A907488DF80630FFF750FA3B
:1015600006B010BD801A06000000FFBF0058004002
:10157000FE000004000C0140F8B505460C461F4E65
:101580004FF400313046FFF764FB0028F8D1012109
:101590001A48FFF732FB1A4F184E39463046FFF70C
:1015A0004DFB0028F9D000227E211448FFF73DFBB7
:1015B000144F124E39463046FFF740FB0028F9D051
:1015C00029460E48FFF72FFB0F4E0C4D314628469B
:1015D000FFF734FB0028F9D021460848FFF723FB2A
:1015E000094D064C29462046FFF728FB0028F9D074
:1015F000BDE8F84001210148FFF70ABB0058004050
:10160000010003008200070084000700F0B5294AAA
:10161000294C516A236899421AD8956AAB4217D26D
:10162000264ED76B3568DFB1591A00FA01F129430C
:1016300031601268032A17D1A3F11102032A04D8DA
:101640001F4990400A681043086001332360F0BDD1
:10165000D16A8B42EDD3156BAB42EAD2194EE0E76B
:1016600040EA45053560E4E7052AEED1A3F114020E
:10167000032A13D81349A3F108020D6800FA02F2F5
:101680002A430A600122104E03F00707DD08BA4022
:10169000715752B258B10A437255D6E7A3F11801F7
:1016A000032901D80949E8E72F2BCED8EAE721EA38
:1016B0000202F1E79811002084110020EC110020B3
:1016C000F4110020F0110020081200207C110020ED
:1016D00070B5294C2368002B4BD0284A284B116841
:1016E00003290DD032293CD0022919D11D6819686F
:1016F000C943C9B2B1EB152F26D11968C9B20EE0A2
:101700001D681968C943C9B2B1EB152F2FD11968EB
:10171000C9B219601B490D68196841EA05211960B1
:101720001268194D02702A681849A0F801201A6839
:10173000A0F803200A684271002201201A602A6082
:101740000A600023236070BD48F2EE710E4D2E68D2
:101750008E420CD10B2111601968C1F30721296059
:10176000CBE71D681968C9B2B1EB152FC5D00020B1
:10177000E7E71846E7E700BF94110020E0110020DA
:101780008811002090110020801100208C11002071
:101790002DE9F0419E4C4FF480519E48FFF783F9AC
:1017A000236843B99C490B680E462BBB9B4D2A68A6
:1017B00020B901322A602068BDE8F0819AB1012287
:1017C0000A6097490A6097490B6097490B609749EF
:1017D0000B6097490B6097490B60FF21964B19608E
:1017E000964B1A70E7E74FF6FE71954A13688B42E5
:1017F000E1D801331360DEE7894FD7F80080B8F1F4
:10180000000F00F0AB808D4D00285CD02B780133A9
:10181000DBB2E92B2B7005D90023804A33601360BB
:10182000864A13703368002BC5D0864B824A596BA9
:1018300012689142BFD19A6B002ABCD1824D7A4A7C
:10184000D5F800E010688645804840F07B817C4FE9
:101850003F68B7F5966F80F07581076801370760BC
:101860001F68012F40F070810368013B012B00F2DB
:101870006B810021724B19602368E3B16B4BD2F886
:1018800000C0D3F800E02B686D4F634570490CD160
:101890000B68734509D140F6C9003B6883429FBF7E
:1018A0006C48036843F0010303600023C1F800E0C3
:1018B000C5F800C03B6000231360584A33601360D2
:1018C0005E4A137077E7554A13689046A3F11F01EB
:1018D0000A2903D82A78063A042A33D9A3F15E02EA
:1018E000532A07D82A78A2F12E012B292CD9173A8E
:1018F000162A2BD9A3F13C020F2A03D82A783C3AA6
:101900000F2A25D9A3F12102092A03D82A78193AE6
:10191000072A1FD9283B162B03D82B78133B0C2BF7
:101920001AD90021316033681BB14422454804F0C4
:101930007DFD0023404A2B7013600122C8F800206F
:101940003B606FE74449EEE74449ECE74449EAE786
:101950004449E8E74449E6E74449E4E7314B1A687B
:101960001D46002A00F0E380364B002833D0324970
:10197000D3F834E00A688C4696450FD1996B01295B
:101980000CD1264A5969126891423FF645AF9969D0
:101990008A423FF641AFC3F8388043E7274F1868C3
:1019A0003978012801F10101C9B2397060D10B29E0
:1019B0007FF638AF0A2A5BD91C48511C596301686D
:1019C000A2F10B0C41EA0C210160D96A0A440132F0
:1019D0001A630A223A701968104F03293A681749A6
:1019E00040F08880DFF850C0DCF80000102840F09C
:1019F0008180053A072A79D80A78A2F13C010F299B
:101A000065D800232B601123CCF80030012397E721
:101A100094110020000C0140E8110020E411002086
:101A20000412002000120020F0110020EC11002010
:101A30007C110020F411002084110020DC11002012
:101A4000F81100209811002028060020FC11002029
:101A5000240600208C110020F8B20008E8B100082C
:101A60002CB2000870B20008B4B20008A4B100089B
:101A7000E9297FF6D7AE0EF1FF318A4204D1996B86
:101A800011B9CCF800E0CDE6022802D01C287FF482
:101A9000C3AE002A7FF4C0AE57480168B1F5E16FCC
:101AA00013D20121996302215A631960534B0260DA
:101AB0001968534B1960534B1968534B19605349BC
:101AC0000B6843F001030B60ACE62260AAE60A2132
:101AD000196020210F3A0F2AD862C3E90C1124D8CB
:101AE0000120FFF793FD00232B608FE70023336075
:101AF0000B708BE7586890420AD89868904207D3D9
:101B000091F800C0D868844502D318698445E7D9A4
:101B100058699042EAD898699042E7D30A78D86920
:101B20008242E3D31B6A9A42E0D80020D9E720B969
:101B3000374A13680133136074E601221A60354B8B
:101B40001A706FE600278AE60123022F2360DFF870
:101B5000B0C027D199B9DFF8A080D8F80030B3F52C
:101B6000E16F1DD2254B29481B68C2F800E0CCF874
:101B700000300368C8F8001043F001030360264BEF
:101B800026491F60DCF80030022F0B6004BF1B49A0
:101B90000B601168224B1960224B1968224B6AE6D0
:101BA0002160ECE7052FEAD1204B93F8008093F8F1
:101BB00001E008F00F01987881EA18110EF00F0883
:101BC00081EA080181EA1E1100F00F0E71451CBF69
:101BD00000212160D978484019795B7948408342D7
:101BE00018BF00230949124818BF23600B6800681A
:101BF00003430B60C3E700BFF81100202406002058
:101C0000EC11002028060020F01100208C1100208B
:101C1000E4110020DC110020E011002080110020E0
:101C200088110020F41100209011002008120020DB
:101C30007C1100200246C368033323F00303C36012
:101C40008068194481429DBF5068D160C01800204F
:101C500070470246084619B10B6811461B681847C1
:101C600070470000054A0648136813F0010301BFDE
:101C70000349C1E900330123136070471C1200209F
:101C800020120020054A0648136813F0010301BF23
:101C90000349C1E90033012313607047101200208B
:101CA000141200200FB437B50C4C06AB20680C4D55
:101CB00053F8042BC0F500712844019304F0D6FDBD
:101CC0002368C3F50072824203DD0028C4BF1B18DD
:101CD000236003B0BDE8304004B0704728140020F2
:101CE00028120020036893F900200D2A03D005DC98
:101CF000093A012A27D801330360F3E7202AFAD0F2
:101D00002F2A00D0704793F901202A2A02D02F2AC7
:101D100010D070470133036003685A1C026093F9C6
:101D2000012082B12A2AF7D193F902202F2AF3D178
:101D30000333E1E703685A1C026093F9013013B1E1
:101D40000A2BF7D1CEE7704738B504460D46FFF7AA
:101D5000C9FF236893F90020AA4203BF013323601F
:101D60000120002038BD0000F8B504468568043025
:101D7000FFF7B8FF626892F90030272B01D0222BC1
:101D800022D10132234E6260616891F90020002A5D
:101D900036D0481C9342606032D05C2A0FD10420B8
:101DA00091F90120875700EB060C2FB1BA4200F1E0
:101DB0000200F7D19CF9012012B302316160A168E1
:101DC000481CA0600A70DFE72F2B20DD392B03DDD4
:101DD000602B0CDD7A2B0CDC626801326260A26839
:101DE000511CA1601370636893F90030ECE7402B3D
:101DF0000DDD5A2BF0DDA3F12D02D2B2012AEBD971
:101E0000A36828465A1CA26000221A70F8BD2B2B2A
:101E1000F1D1E1E7D4B3000838B50D46446834B1D8
:101E2000A168284604F0E0FB08B12468F7E72046E3
:101E300038BD000038B5FFF7EFFF044668B1057CF8
:101E4000012D05D1816919B1054804F0CDFB18B108
:101E5000013D012D01D8A06938BD0020FCE700BF7D
:101E6000E3B300082DE9F043046885B081462146BC
:101E70000820FFF7EEFE0546002840D0002304604E
:101E8000436009F104085B214046FFF75DFF78B32A
:101E90005D214046FFF758FF68BB06466F4639464E
:101EA00048468DF8006000F02EF808B32968182025
:101EB000FFF7CFFE08B1066006726B6813B9686061
:101EC00004E013461A68002AFBD1186080B100F1C3
:101ED000080497E80F0084E80F005D214046FFF7F3
:101EE00033FF40B92C214046FFF72EFF0028D6D102
:101EF000FFF7B8FE0546284605B0BDE8F083FFF7BA
:101F0000B1FE0546BDE770B5047B05460E461CB321
:101F1000013C04730430FFF7E5FE6B6893F9004061
:101F20005B2C10D07B2C1ED0272C24D0A4F12203B4
:101F30005C425C412846FFF717FF48B1ECB1022331
:101F40003370B06005E02846FFF78CFF03682BB9BB
:101F500000242B7B01332B73204670BD0623337086
:101F6000B0600124F5E7284600F00AF80368002B6A
:101F7000EED00723F3E70124DCE701243470E0E727
:101F80002DE9FF470468804621460820FFF761FEDF
:101F90000546002856D000230460436008F104067B
:101FA0007B213046FFF7D0FE002844D07D2130460B
:101FB000FFF7CAFE002841D181466F464046FFF731
:101FC000D3FE0446002836D03A213046FFF7BCFE47
:101FD00088B3394640468DF80090FFF794FF50B320
:101FE00021462846FFF718FF824698B92968202025
:101FF000FFF72FFE18B1C0F800A080F810A06B68A2
:1020000013B9686004E013461A68002AFBD118600F
:1020100088B1846000F1100497E80F0084E80F0095
:102020007D213046FFF790FE40B92C213046FFF766
:102030008BFE0028C2D1FFF725FE0546284604B0D6
:10204000BDE8F087FFF71EFE0546A7E770B5002440
:102050003849ADF5267DA04218BF014622ABCDE937
:1020600002314FF40075322326AA2392324A04909B
:1020700002A822928DF81430CDE92454FFF780FF96
:1020800006462E4B2A4621462D481C6004F044FA91
:1020900033682C488BB9FFF705FE2B48FFF702FE8B
:1020A0002A48FFF7FFFD2A48FFF7FCFD244801F00E
:1020B0001FFE01200DF5267D70BDFFF7F3FD2549BC
:1020C0003046FFF7B7FE244C01462448FFF7EAFDEF
:1020D000E078A278617800F5FA6000F00BFF1D4906
:1020E00005463046FFF7A6FE01461D4804F07CFA7F
:1020F0000646E0B91B491C488B784A780978FFF7F7
:10210000D1FDA3786278E1780C24184801F5FA61D2
:1021100004FB050516480095FFF7C4FD31468022F3
:1021200002A804F0F9F902A91248FFF7BBFD124812
:10213000B7E700BFE2B3000844B30008281400204A
:102140002812002048B300084AB300085AB3000818
:102150006BB300086DB300082C16002071B30008A3
:102160007DB300083016002084B300082C06002040
:102170009BB30008B7B30008C6B30008082391FB5F
:10218000F3F300EB83104B4203F0070301F0070168
:1021900058BF59420123034A03FA01F1135C194362
:1021A000115470472C140020082391FBF3F300EB2B
:1021B00083104B4203F0070301F0070158BF594257
:1021C0000123034A8B40115C21EA0301115470473B
:1021D0002C1400200AB1FFF7D1BFFFF7E5BF0CB404
:1021E000F0B505460E4697B01CAC54F8047B50225F
:1021F000002102A804F090F923463A464F2102A894
:10220000019404F033FB02AA3146284601F006FA95
:1022100017B0BDE8F04002B0704700002DE9F84368
:102220008846044602EB8202151A0F4A471D1544E0
:102230003F2C10D8002615F9049008EB06011F2941
:1022400006D849FA06F3DB07204609D5FFF796FFC3
:102250000136082EF1D10134BC42E9D1BDE8F88342
:10226000FFF7A2FFF4E700BF100100202DE9F041C5
:1022700006468846154600240627284604F092FAAA
:10228000A04207DD2A5707FB04604146FFF7C6FF5F
:102290000134F2E7BDE8F0810CB4F0B505460E4616
:1022A00097B01CAC54F8047B5022002102A804F023
:1022B00033F923463A464F2102A8019404F0D6FA96
:1022C00002AA31462846FFF7D1FF17B0BDE8F0401B
:1022D00002B070472DE9F04180460E46144602F5E3
:1022E00010770025635708EB0500302B31460BD1E2
:1022F000FFF744FF0135182DF4D11834BC4206F124
:102300000106EED1BDE8F081FFF74EFFF2E70000D5
:10231000002370B5174A18499C5C585C844204D16C
:102320000133B3F5807FF7D170BD0024124E042134
:102330008020FFF721F912218020FFF71DF964F0BA
:102340004F01C9B28020FFF717F90025715DC02049
:102350000135FFF711F9402DF8D10134042C06F1B5
:102360004006E4D14FF480720349024804F05EF85D
:10237000DAE700BF2C1500202C14002010B504460D
:1023800081218020FFF7F8F804F03F018020BDE8AC
:102390001040FFF7F1B808B5FFF7B6F8A22180208A
:1023A000FFF7EAF8A1218020FFF7E6F8C821802096
:1023B000FFF7E2F840218020FFF7DEF82C21802093
:1023C000FFF7DAF82E218020FFF7D6F82F218020A2
:1023D000FFF7D2F826218020FFF7CEF8AF2180202A
:1023E000FFF7CAF8A4218020FFF7C6F881218020DA
:1023F000FFF7C2F825218020FFF7BEF800218020DA
:10240000FFF7BAF810218020FFF7B6F8BDE80840C2
:10241000B0218020FFF7B0B808B501210748FEF7CA
:10242000C6FD48B100F0ACFBFFF7B2F9BDE80840CB
:1024300001210248FEF7C6BD08BD00BF00040040F0
:102440002DE9F84300244FF06A56DFF86890DFF872
:102450006880164B651C186803F04AFB494603F078
:1024600053FC02F02DFB414603F04EFC0746284684
:1024700003F042FB0146384603F092FB314603F07D
:102480008FFB01464FF0804002F0A6FB4FF07E51DB
:1024900003F07CFA03F0EAFC054BB5F5806F23F8F6
:1024A00014002C46D5D1BDE8F88300BF0C010020F4
:1024B000AA16002000007A461872313F08B5802124
:1024C0000348FEF7F0FAB0FA80F0400908BD00BFFB
:1024D000000C01402DE9F04FA7B0FEF7A7FF00F078
:1024E00079FD00F075FB00F039FDFEF769FFB0489B
:1024F00000F03BFCAF4800F062FC01F07FFC0421DF
:10250000AD48FEF7D6FA0421AC48FEF7D4FAC8204D
:10251000FEF772FF0421A948FEF7CBFAC820FEF7A8
:102520006BFFFFF738FFFFF7F3FE20234022A4499B
:10253000A44800F08FFD002000F008FE002000F00D
:10254000B1FE6FF07F4000F0A7FE01F061FBFFF7E6
:10255000DFFEFFF775FF1020FEF744FA0446142053
:10256000FEF740FA24B2B4F5167F00B280F30603FA
:10257000B8BF4FF4167440F2FF30844205932346EF
:10258000A8BF03460493049A8F4B002533F812200A
:102590008E4B9DF814009A86FFF7F0FE8C4BA846F0
:1025A0001B68AA4609938B4B4FF00C091B682C46FD
:1025B0000B93894B2F461B682E460C93874B069531
:1025C0001B6808950D93864B1B680E93854B1B6803
:1025D0000F93854B1B6810930123039301F006FCB6
:1025E00008B101F0BDFB8148FFF772F8784A0899FD
:1025F00013685B1AB3F5FA7F15D913680893F31EB5
:10260000012B09D96B496A4800F006FC684800F0C4
:10261000ACFB684800F0D3FB069B0BB1013B069373
:102620004FF0010B01E04FF0000BFFF747FF079061
:10263000002800F07682BAF1000F34D0FA20FEF7BD
:10264000DBFECDF81CA0B8F1000F13D0FFF736FF6A
:102650005F4B002840F05A821A68A2EB0802B2F5DC
:10266000FA7F80F053820399584A002977D0804638
:1026700090860390B9F1000F00F0BC80544B1A68AB
:10268000099BD21A5A4B03FB09F39A4240F2B280DB
:102690004FF000024D4B4FF0010B9A86002303933D
:1026A0001F461E4668E0062E0CD8DFE806F004310F
:1026B0003B454B115000B8F1000F03D1444B464647
:1026C0001B689846FA20FEF797FE00230793BAE7A7
:1026D000052DF7D8DFE805F03D03080E1319002497
:1026E000AB4602270426EDE700244FF0010B032739
:1026F0000626E7E7374601264FF0010BE2E7002404
:102700002F464FF0010B0226DCE700273E46F3E799
:10271000BDF810101020FEF757F9B34637460325D1
:102720000526CFE7BDF814101420FEF74DF9042557
:102730004FF0010B5F46F3E71D4800F002FB002558
:102740000127EDE71B4800F02AFB0125F8E70225E9
:10275000EEE72C464FF0010B02270326B2E71B6879
:1027600004990993184B33F811309386B9F1000F8F
:1027700018D10123C846039300F048FA404240B202
:10278000002852D0731E052B4FD8DFE803F0623BC0
:102790008191BCA00123B8463C4607939B461F4647
:1027A000052667E70123DDF80C80039366E700BF89
:1027B000301600202C160020000C014000080140BB
:1027C000D521000834160020AA160020000400407D
:1027D000741100201C06002018060020200600208E
:1027E00010060020140600200C060020A41600206D
:1027F00080EE3600039B002B02BF1F461E464FF0A3
:10280000010BB9E70444052C15DD059800240130BF
:1028100003B2402B059319D081218020FEF7ACFE36
:102820009DF814108020FEF7A7FEBBF1000F5BD1CE
:10283000DDF81CA0D2E6631DEEDA059B0024581ECD
:1028400003B205930133E7D10594E5E73F230593F0
:10285000E2E7049B184403B2B3F5FA7F0493B24B4A
:1028600006DB049AB2F5806F09DAB2F5FA7F09D176
:102870004FF000029A864FF4FA730493D5E740F2C2
:10288000FF3204920499A94A32F811209A86CCE7C3
:102890000444022C07DD0121A54800F09EFA002423
:1028A0000423069320E0A01CFADA4FF0FF31F3E78F
:1028B0000444032C06DD01219E4800F015FA06961B
:1028C000002411E0E11C2EDA4FF0FF31F4E704445C
:1028D000052C13DD09F10109002429EAE979B9F190
:1028E000180FA8BF4FF01809052F5BD8DFE817F0C5
:1028F0001D00E8005D00AC00C600D500621DECDAEA
:1029000009F1FF39E8E70444052C04DD0135052D04
:10291000A8BF0525D4E7631DE6DA15F1FF35CFD250
:1029200000252C46E0E70696DEE7002000F00EFCCE
:10293000814BDFF8FCB1186800F0C0FB9BF8003059
:102940007E4A092B8CBFBA464FF0060A02210FFAC5
:102950008AF0FFF744FCCAF12500DFF8D8A19BF804
:102960000130774A022100B2FFF739FC9AF80300E0
:102970009AF802209AF8011000F5FA6000F0BAFA0D
:10298000542283466F4911A803F050FD9AF8023093
:1029900011AA00930C23122103FB0B230F206A4A78
:1029A000FFF77AFCFFF7B4FC42E7002000F0CEFB13
:1029B000032E20D1654A0021102000F02FFE5E4B2F
:1029C000DFF86CB1186800F079FB9BF800305B4AC7
:1029D000092B8CBF4FF0000A4FF0060A0A2150461F
:1029E000FFF75AFC0A219BF80130554ACAF125002D
:1029F000FFF752FCD6E7042ED4D1DFF838A1544AB1
:102A00000021102000F00AFE9AF802304C4A0A21F8
:102A10000020FFF741FC4F4A0A210C2000F0FEFD88
:102A20009AF80130464A0A211220FFF735FC494A3C
:102A30000A211E2000F0F2FD9AF80330464A03F501
:102A4000FA630A212420D3E7002000F07FFB102046
:102A5000424A002100F0E2FD374B186800F02EFBDF
:102A6000B9F1000F04D04B463D4A0B210F20BFE7C0
:102A70003C4A0B210F20FFF70FFC93E7002000F0EA
:102A800065FB0021384A084600F0C8FD2A4B18684B
:102A900000F014FB059B354AE7E7002000F056FBE9
:102AA0000021334A0846FFF7E1FB234B186800F08A
:102AB00005FB049B2F4A0B210020FFF790FB71E7D9
:102AC000002000F043FB26AB03EB850353F86C2C8E
:102AD00004212820FFF7FEFB052D3FF663AFDFE85A
:102AE00005F00307090F1113184A0C21042004E014
:102AF000174AFAE7194A0C210020FFF7B7FB51E704
:102B00001B4AF8E71C4AF6E71C4AEEE71B68A3EBF2
:102B10000803B3F5FA6F7FF6ADAD16B9002F3FF499
:102B200039AE4FF00008A5E500040040AA160020C9
:102B3000301600202C160020800600203CB400082F
:102B400043B40008E8B3000840B4000848B40008E3
:102B50004DB4000852B4000854B4000859B4000839
:102B60005FB4000864B4000868B4000871B40008D9
:102B700075B400087CB4000880B4000886B400086E
:102B800010B540210F48FDF78EFF202101280D4888
:102B90000CBF03240024FDF786FF0B4A012813789D
:102BA00008BF84F001041B1BDBB2D90709D5074914
:102BB00014700A7803F0020352B2013A13445BB274
:102BC0000B7010BD000C0140AA1E0020AB1E00209F
:102BD00010B540210A48FDF766FF2021012808486A
:102BE0000CBF03240024FDF75EFF0022054B0128E3
:102BF00008BF84F001041C70034B1A7010BD00BFA5
:102C0000000C0140AA1E0020AB1E002072B600225C
:102C1000024B18781A7040B262B67047AB1E0020A3
:102C200010B5044601214FF0C050FEF7A5F8012071
:102C3000FEF72AF80CB1FDF7BDFE0120FEF730F8D3
:102C40004120FEF7ABF80028FAD04FF48070FEF771
:102C500037F80120FEF73CF8FEF7F4F8FEF7EAF843
:102C6000FEF7E8F847F6FF70FEF7D4F8BDE810402D
:102C7000FEF7E0B8830711D16422B0FBF2F302FB48
:102C800013039BB263B94FF4C872B0FBF2F302FBBB
:102C9000130080B2B0FA80F04009704700207047FE
:102CA0000120704730B5421E0B2A85B003460D4601
:102CB00016D80C4C01AA20686168022B03C2A068D8
:102CC000106008D1A8B2FFF7D5FF003018BF01206F
:102CD0001C3005B030BD04AA134413F80D0CF8E7FE
:102CE0000020F6E78BB400080029F8B5074627D086
:102CF000C4788678457804F5FA640EDD01362146FD
:102D00002846FFF7CFFFB04216DA01350C2DA6EBAF
:102D10000006F4DD01340125F1E7013E002E0BDC55
:102D2000013D002DDCBF0C2504F1FF34214628466F
:102D3000FFF7B8FF0644F1E73034BE707D70FC70D9
:102D4000F8BD10B50446FEF775F83C20627823788C
:102D500050434FF4616202FB0303A0781844FEF76E
:102D60004BF8BDE81040FEF765B838B50446FEF7ED
:102D700061F8FEF739F80546FEF75CF84FF461623A
:102D8000B5FBF2F32370DBB202FB13503C22B0FB25
:102D9000F2F36370DBB202FB1300A07038BD10B514
:102DA000044643788178082001EB032189B2FDF7BE
:102DB0000BFEE1780C20BDE81040FDF705BE38B5EC
:102DC00005460820FDF70EFE04460C20FDF70AFE1E
:102DD000AC70240A6C70E87038BD002910B513D0AF
:102DE000417803780ADD4A1C18213B2A08DD0133AB
:102DF00093FBF1F43C3A01FB1433F6E74A1E21B190
:102E0000037000234270837010BD13F1FF3338BF8D
:102E100017233B22F4E700002DE9F0410C4605465C
:102E2000FEF708F82046FFF7CAFFFEF703F828462A
:102E3000FFF79BFF4FF0010841F2AA572C4EFDF718
:102E4000D3FFB04252D9FDF7F5FFFDF7CDFFA0F556
:102E5000A830A0F5C070FDF7CFFFFDF7EBFF2846C7
:102E6000FFF783FF61780C2908D808FA01F33B4289
:102E70000AD113F4256F1CD15B071ED4FDF7DAFFCE
:102E80002046FFF78CFFDAE7A3781E2B02D8013328
:102E9000A370F3E70C2904D00131617084F802803B
:102EA000ECE7E37884F80180013384F80280E37072
:102EB000E4E7A3781D2BEFD8E9E7A3781B2B08D80C
:102EC0000133A370A3781D2BD8D1637801336370CD
:102ED000E4E71C2BF6D1E078FFF7CCFE08B11D2308
:102EE000EFE70131617084F80280EBE7BDE8F08123
:102EF0007F51010030B50C236FF00B05C1F10E04BA
:102F000094FBF5F594FBF3F403FB0413D91E99230A
:102F10004B430521023393FBF1F31A4440F26D1346
:102F200000F59650284403FB0023042290FBF2F2A4
:102F300013446FF0630290FBF2F213444FF4C87233
:102F400090FBF2F003440720A3F5FA432D3B93FBDB
:102F5000F0F0C0EBC000181A30BD000010B504201E
:102F6000FDF740FD45F65A24A04222D00120FFF78C
:102F700057FE0D23154803702523437000238370EB
:102F8000FFF7DFFE0A231248837043701123C370DA
:102F9000FFF705FF40F2FF311020FDF715FD282156
:102FA0001420FDF711FD2146BDE810400420FDF777
:102FB0000BBD0020FFF734FEFDF744FF0449034832
:102FC000FFF72AFFBDE81040FDF734BFB01E002018
:102FD000AC1E002030B5012189B00220FDF7CCFEE7
:102FE000002540F6B833194C01A92046CDE901531C
:102FF0008DF80C50FDF734FF20460121FDF7BCFF92
:10300000012220461146FDF7C2FFC823CDE9055530
:10301000ADF816300E4B04A9049302232046ADF8F8
:1030200018300795FDF766FF08212046FDF7B7FF2A
:103030001D23ADF80030012368468DF802308DF86D
:103040000330FDF78BFC09B030BD00BF0004004029
:10305000700001008280053A12B28284828340F2BD
:103060000112C380A0F84420053B124A1BB2C3845E
:10307000C383026500236FF07F4201604FF00411AB
:1030800003630387C386438783870364C0E91223EE
:10309000C0E904338361836580F85C30036680F89F
:1030A0006430836680F86C30034B01621860012045
:1030B000704700BFEF8B5E00B41E002030B50546A0
:1030C000034B1C680FCD30340FC42B68236030BD18
:1030D000B41E002082422DE9F3471E46B8BF0346C6
:1030E00090460746BCBF984617468E42B8BF0B466F
:1030F000154A0C46BCBF34461E461368DDF828A0AE
:1031000093F86410914611F0020F18D0CDF800A08A
:103110001D6E4246334621463846A84778B902B06C
:10312000BDE8F087D9F8003028461B685246214692
:10313000984701352DB2A845F4DA013424B2A642ED
:10314000EDDB3D46F7E700BFB41E002007B50021C8
:10315000074B1A68D3889288013B013A00901BB252
:1031600012B20846FFF7B6FF03B05DF804FB00BFDC
:10317000B41E002082422DE9F04F1F46B8BF03461F
:1031800016460446BCBF1E4614468F42B8BF0B46C7
:10319000404A0D46BCBF3D461F46136885B093F8B4
:1031A0005C10924611F0020F45D1361B32B27B1BE8
:1031B0001BB282EAE278002AA8EBE27883EAE3799C
:1031C000CCBF01224FF0FF32002BA9EBE379CCBF3B
:1031D00001234FF0FF330393DAF8003002920FFA25
:1031E00088F70FFA89F61B680E9A294620469847F9
:1031F000B7422EDA4FF0000ADFF898B077100FFAD6
:103200008AF39E4222DD4744BBB21FB2BE4205DCB8
:10321000A3EB0907029B3FB21C4424B2039B0E9A06
:103220001D44DBF800302DB21B6829462046984724
:103230000AF1010AE3E70E9A29460092D3F8588072
:1032400032463B462046C0470028AED105B0BDE817
:10325000F08F4FF0000ADFF83CB07E100FFA8AF3CF
:103260009F42F3DD4E44B3B21EB2B74205DCA3EB7E
:103270000806039B36B21D442DB2029B0E9A1C44D5
:10328000DBF8003024B21B682946204698470AF133
:10329000010AE3E7B41E0020014B1B6898647047E5
:1032A000B41E0020014B1B68D8647047B41E002078
:1032B0002DE9F04F5FFA80F989B0B9F1D60F8A464F
:1032C00001931146139C62D04ED8B9F1B50F67D067
:1032D000B9F1C40F61D0B9F1B00F08BF4FF0F809D0
:1032E00063891FFA89F29A423BD3A089904238D36E
:1032F000B4F9062095B2002D33D0680720694FEA53
:10330000D50718BF013710B1A9EB0305455DDFF8FC
:10331000EC8288B20290D8F8000090F86C60B60792
:1033200040F1BA80029B2289013B13440AF1FF322B
:103330002A44866E1BB212B25046B04723798046AB
:10334000002B59D19B466689A9EB0609B4F90860A0
:1033500006FB09F67E43B4F908201FFA8BF393426B
:1033600047DB09B0BDE8F08FB9F1E40F12D005D802
:10337000B9F1DC0F08BF4FF09A09B1E7B9F1F60FC8
:1033800011D0B9F1FC0F08BF4FF08109A8E74FF049
:103390009909A5E74FF08409A2E74FF08E099FE74E
:1033A0004FF0E6099CE74FF0940999E722684B1C1F
:1033B000AAF10809525C02931FFA89F9BAF1000FC9
:1033C0000ED0D1074CBF019812980392C0470AF162
:1033D000FF33039A1FFA83FACA454FEA5202EDD12E
:1033E00002998A1B92B29742E0D83E440BF1010B3E
:1033F000B1E73146AA46F4E7012BB2D1002766892E
:10340000129BA9EB0609B4F908605FFA83FA06FB80
:1034100009F9B4F9066006FB09F69DF80490B4F9C1
:103420000820BBB293429CDA019B324603F47F4BE7
:1034300029E02368511C13F802C00291CCF5807E6C
:103440000EFB0AF20CFB0922C2F30723129A12990F
:1034500002F47F400EFB00F00CFB0B00000A00F4AE
:103460007F4043EA000201F47F000EFB00F0019B65
:1034700003F47F030CFB0300000A00F47F001043F9
:10348000C04702990A46931B9BB2AB42D1D3B4F911
:10349000063001371E44C2E7217900294CD1B4F926
:1034A0000860A9EB030906FB09F67E43DDF80890E6
:1034B000CDF81C80029BB4F90820A9EB03039BB252
:1034C0009342BFF64EAF3346AB460FFA89F21FFA6E
:1034D0008AF804929A1B92B2BA4205D309F1010903
:1034E0003E441FFA89F9E5E75A1C06922268D35C2C
:1034F000039308F108039BB20593BBF1000F19D0A9
:10350000079B039A1B68D2070FFA88F01B684CBF11
:10351000019A129A04999847039B08F101085B08E5
:103520000393059B1FFA88F80BF1FF3B43451FFAF5
:103530008BFBE2D1069BCDE701297FF412AFB4F9F2
:103540000860A9EB030906FB09F902FB09F61FFA5B
:103550008AF3029F0493029BB4F90820FB1A9BB2E2
:103560009342BFF6FEAEB146049B1FFA86FAA3EB68
:103570000A0303931FFA89F0A0EB0A039BB2AB4244
:1035800005D3B4F9063001371E44BFB2E3E7236820
:10359000129913F809C0129BCCF5807EDBB20EFBAA
:1035A00003F39DF8042001F47F4B0EFB0BFB0CFB97
:1035B0000232019BC2F3072203F47F430CFB03B1E9
:1035C000019B090A01F47F41114303F47F02129B1E
:1035D00009F1010903F47F030EFB03FE0CFB02E279
:1035E000039B120A1844D8F8003002F47F020A4301
:1035F0001B6839B200B29847BCE700BFB41E002078
:1036000013B5054C246830340194049C0094FFF7F2
:103610004FFE02B010BD00BFB41E00202DE9F743DD
:1036200007460D460446DFF87880561E16F9010F4E
:1036300010B903B0BDE8F083D8F800305A8F90423B
:10364000F4DB998F8842F1DC0A28B3F9041024D006
:10365000D3F840C0BCF1000F1CD0821A1CF80290B5
:1036600004EB0902914206DC3C4693F94520198F90
:103670000A4415442DB2DA6C214600929B6C2A460E
:10368000FFF7BEFFD8F8003093F944304B441C4498
:1036900024B2CBE793F83690E2E70C46C6E700BFCA
:1036A000B41E00202DE9F04F416889B00B68054633
:1036B00013B3076807B3B0F90A00B5F90E20B1F9E2
:1036C00008A0131A534517DB01237E1E16F9014F7C
:1036D000ACB995F81880B5F91C4018F0300605947F
:1036E00080B211D00132121A0AFB1322013B03FBF4
:1036F00014231BB2002B08DA09B0BDE8F08F0A2CA6
:1037000004BF01339BB2E1E7334618F0100F18BF36
:103710005B1003441EB2CB88B5F90C2006932B89AD
:10372000B5F91A400393531C039A04949B1A079308
:103730003946002411F9013B0BB10A2B1CD1BDF80D
:1037400010B0079BA4EB0B041C1B24B2002CD3DB92
:1037500018F0010F23D118F0020F00D06410039B62
:1037600017F9019B1C44B9F10A0F24B219D1059B2A
:1037700053441E4436B2DBE7686842899342D9DB82
:10378000B0F80CC06345D5DC006930B19B1AC35C4E
:10379000049A14441C44A4B2CCE7069BF8E7002426
:1037A000DDE7B9F1000FA7D06B68324601936B6972
:1037B0002146009348462B69FFF77AFD6B681A692A
:1037C00032B15B89A9EB030912F809305C44C7E701
:1037D000069BFBE7F0B500242C4B07781B68B3F978
:1037E0000A50B3F90C6093F808C0A3B29F4200D806
:1037F000F0BDD0F804E062010EEB02011EF80220D9
:103800004B7802F04B020A2A29D103F04002BCF1A6
:10381000000F27D0B5F1FF3F24D01AB903F067039A
:1038200043F00503B1F908E003F0DF02AE4514DC14
:10383000B1F90CE0AE4510DBB1F90AE0B6450CDC9D
:10384000B1F90EE0B64508DB13F0400F0ABF03F0F4
:10385000DB0342F0200243F0220242F040034B70AF
:103860000134C2E7002AFAD09A060CD59A0748BF5D
:1038700043F0800343F008035A0648BF43F00103B6
:1038800003F0B903EBE743F01003F5E7B41E0020A3
:103890002DE9F8430646002590F80080ABB2984524
:1038A00001D8BDE8F88372686B01D75CD41807F0C3
:1038B0000303022B12D1B90694F8019003D5636873
:1038C0002146304698473A0708D53B0606D519F0F9
:1038D000410F03D063682146304698470135DDE744
:1038E0002DE9F34700250223144C0646A146AA46BB
:1038F0006560237007780DF10408ABB29F4202D8CF
:1039000002B0BDE8F08771686A018B1801938A5C88
:1039100002F00302022A0ED19A7E62B1197E5B7E0A
:10392000C4F80480A3706170336CE2704846984715
:10393000019B83F81AA00135DFE700BFB81E002005
:103940002DE9F04F0F4699460546904687B0109CEA
:1039500093B2029303F1FF3A23680FFA8AFA0093B5
:1039600052460B46FFF706FCBBB203935E1C1FFAE0
:1039700089F3049303F1FF3B636836B20FFA8BFBC4
:1039800000932A465B4631462846FFF7F3FBA368BF
:103990004246009349464B462846FFF7EBFBE36857
:1039A0004246009339465B464046FFF7E3FBABB225
:1039B00005935F1C029B3FB2A3F1020823690FFA33
:1039C00088F800934246334631463846FFF7D2FB2B
:1039D000039B3A469D1C049B2DB2A3F10209636927
:1039E0000FFA89F9009329464B463846FFF7C2FB88
:1039F000A3695246009359465B463846FFF7BAFB27
:103A0000E3695246009331464B465046FFF7B2FBFE
:103A1000059B29469E1C029B36B2DA1E236A30465D
:103A2000009312B22B46FFF7A5FB049B3246DF1E24
:103A3000039B3FB2D91C636A3046009309B23B46F0
:103A4000FFF798FBA36A4246009349464B4630462F
:103A5000FFF790FBE36A4246109329463B464046F7
:103A600007B0BDE8F04FFFF785BB00002DE9F0413E
:103A700004468AB000285DD0037A9A075AD5037F9E
:103A8000B0F91450DB07B0F91680B0F9186007D50B
:103A9000033508F10308033E2DB20FFA88F836B259
:103AA000264B1FFA88F71B6841465B692846A342EC
:103AB0000BBF236BA36B079307930CBFE36A636B86
:103AC000079A069394F83C300092013B3B443246FF
:103AD0001BB2FFF7FFFA236A02A80293636AADF8EC
:103AE00012800393EB1CADF8103094F83C30ADF825
:103AF0001460013B3B44ADF8163094F82A308DF841
:103B0000203094F92830ADF8223094F92930ADF8FE
:103B10002430FFF7C7FD94F83C30094A3B441BB200
:103B20000092284632461946FFF724FB00200AB0CF
:103B3000BDE8F0814FF0FF30F9E700BFB41E002070
:103B4000A0A0A0002DE9F341037A044623F020024F
:103B50001907B0F91460B0F91650B0F91870B0F93F
:103B60001A80027245D5027FD20713D5580611D4A8
:103B7000254B3A460093294643463046FFF7E0FE80
:103B800003360335033FA8F1030836B22DB23FB226
:103B90000FFA88F8237F99070AD52046FFF766FFBA
:103BA000237A5A061FD494F83C3001331D442DB2B9
:103BB00023693A460093294643463046FFF78AFA7E
:103BC0000022257893B29D4210D960685101435C70
:103BD00003F00306022E04D11E0744BF43F0600326
:103BE00043540132EEE723F04003237202B0BDE8F4
:103BF000F081064B3A461B6831461B6D30460093F8
:103C00004346FFF767FAF1E798B40008B41E0020B6
:103C100010B5284C226892F85430D90744BF23F0DD
:103C2000010382F85430D2E9043083422BD053B3DD
:103C3000C2E90530F8B1027F92071CD5027A11075C
:103C400019D5B0F91410B3F91420914211D1B0F97B
:103C50001810B3F9182091420BD1B0F91610B3F92E
:103C60001620914205D1B0F91A20B3F91A309A42C0
:103C700001D0FFF7FBFE23685A69137A23F0400353
:103C800043F02803137223685C6994B1237A9A067F
:103C900002D52046FFF756FF237A1B0709D5204699
:103CA000FFF798FDFFF7F4FD2046BDE81040FFF751
:103CB00017BE10BDB41E0020F0B500240A4B0B4EF9
:103CC0001D684718A5EB000C87420CEB000206D0DC
:103CD00010F8014BC2F30802B4540124F4E729445C
:103CE00004B11960F0BD00BFC41E0020C81E002032
:103CF00070B50446C0B04FF480720021684602F0EF
:103D00000BFC204602F04EFDFB28024625D821463A
:103D1000684602F08BFB204602F044FD0D220DF8B0
:103D200000200A220DEB00035A70002268469A70A8
:103D300002F038FD6C4605467DB13F2D2E4628BF6A
:103D40003F26012000F0C4FD2028FAD12046F1B220
:103D5000FCF72AFB3444AD1BEEE740B070BD000019
:103D60002DE9F0411B4FFCF739FB3E46DFF8788028
:103D70003A68D8F800309A4229D21749174DC2F351
:103D800008028A562B680A2A1A700CD00D2A144C85
:103D90000DD1002220461A70FEF758F910B91148CB
:103DA000FFF7A6FF2C60336801333360E0E701338F
:103DB0002B601B1BFE2BF6DD4FF48072002120468A
:103DC00002F0AAFB07482C60FFF792FFEBE7BDE883
:103DD000F08100BFC01E0020C81E0020C8210020A6
:103DE000C8200020C8B40008C41E0020024B186878
:103DF000431F5842584170474410002008B5FCF753
:103E000055FAFCF781FAFCF78AFA00F017FC024B2E
:103E1000024A1A6008BD00BFC8210020C820002047
:103E200010B5064C18B9012223681A8210BD044B44
:103E30001B681B68984720680A30F7E7B822002003
:103E4000B422002010B5064C18B9012223681A824A
:103E500010BD044B1B689B68984720680C30F7E73F
:103E6000B8220020B42200201E4B10B51C6800238D
:103E700010B90223238210BD1B480380217802461B
:103E800011F07F0112D1617A8C0644BF02230370C6
:103E9000037848064CBF43F0010323F0010313707D
:103EA000124B1B681B6998470F48E4E70129E2D0D1
:103EB000022915D1617901F00F039B0003F18043C2
:103EC00003F5B84309061B6805D503F03003102B32
:103ED000E6D10123E3E703F44053B3F5805FF7E74E
:103EE0001846C8E7B822002088220020B42200200B
:103EF0002DE9F843234FDFF8A0803D682C8AD4B920
:103F00002E7A042E17D120490B78012B0ED11F4B8E
:103F10001A681F4B92B213445B001C6030230C7074
:103F2000A8F800303B681E72BDE8F883102307260E
:103F3000A8F80030F6E7AB8A9C4294BF042602261C
:103F40009C4228BF1C46AB6920469847814600200A
:103F500000F046FD22460146484600F049FC214655
:103F6000002000F059FD2B8A4FF440521B1B2B827E
:103F70006B8A1C443023A8F80030064B6C821A80F0
:103F8000D0E700BFB8220020CC210020505C0040C8
:103F900002300020BE220020C022002010B50A4BB3
:103FA0000A491B684978DA7891420AD3997841B96D
:103FB0009C8834B99A72064B1B685B689847204608
:103FC00010BD0220FCE700BFB822002094000020B2
:103FD000B422002038B50F4A0F4D12682B68926941
:103FE000D978587990472B6804469A7A7AB170B993
:103FF0001A7962B99B7853B9084B1B68DB689847FC
:104000002B685A79DA72DA781A73204638BD02249E
:10401000FBE700BF90220020B8220020B42200203D
:1040200038B52D4B1B68187810F07F0004D15A7AF0
:1040300022F020025A7238BD02284BD15A88002A39
:10404000F9D11A79002AF6D15979244D21F080004E
:10405000840004F1804404F5B844226849B22D7804
:104060000029B4BF02F0300202F44052854231D937
:1040700082B39B7A73B30029236811DA03F030030B
:10408000102B07D1C4B2204600F076FC3021204628
:1040900000F0ECFB124B1B685B6998470020CAE7F5
:1040A00003F44053B3F5805FF4D10E4D78B90E4B55
:1040B00093F82C1000F0BEFC23682B409BB283F4D5
:1040C000405343F4004343F080032360E2E700F0F1
:1040D00040FCF1E70220AEE7B82200209400002067
:1040E000B42200208FBFFFFF6400002038B51D4BB5
:1040F0001D4D18682D78417921F08004A20002F14D
:10410000804202F5B842136849B20029B4BF03F0F7
:10411000300303F44053A54221D94488FCB9F3B1DC
:10412000837AE3B113680029B5BF23F4E04323F495
:10413000804323F0400323F07003B5BF9BB29BB2D2
:1041400083F0100383F4805343F4004343F080036F
:104150001360064B1B689B699847002038BD0220FE
:10416000FCE700BFB822002094000020B422002009
:1041700008B5064B1A68537A43F020035372044B78
:104180001B68DB699847002008BD00BFB8220020EB
:10419000B4220020054B10B51C68628A18B98B88C0
:1041A0009B1A238210BD08681044FBE7B822002048
:1041B00008B50B4B002093F82C1000F03BFC094B8A
:1041C0001B68187A082806D14FF48052064B1A80D3
:1041D0001022064B1A80A0F109035842584108BD2D
:1041E00064000020B8220020BE220020C02200204F
:1041F000F7B5974C974E276832683B7A092B19D050
:10420000954B92B213445B001D886D0005F180450B
:1042100005F5C0452B783B706B787B70A88800F063
:1042200039FC78802889276800F034FCB880AA8996
:104230002368DA80012223681A72DA885D78002AFE
:1042400063D11A7812F07F024CD1092D03D1FFF708
:10425000A5FE40BB16E0052D20D193F90320002ACE
:1042600007DA08232268137203B0BDE8F040FFF7B5
:104270009FBF9A78002AF4D19A88002AF1D19B7ABC
:10428000002BEED13268754B92B2134400225B00D2
:104290001A603022724B1A800623E3E7032D11D1F6
:1042A000DA78012A08D06F4B28461B685B6998476B
:1042B000032827D10923D5E79B88002BF3D1FFF7EB
:1042C00057FFC6E7012DEED1DA78012AEBD19A88A3
:1042D000002AE8D15B7A9F06E5D5634B1A60FFF7A9
:1042E0009FFEB6E7012A04D10B2DDCD1FFF772FE49
:1042F000AFE7022AD7D1012DF1D0032DD3D1FFF79B
:10430000F5FEA6E70028ACD1BCE7062D12D11A783D
:1043100055065AD19B78534A012B126802D1D369B2
:10432000DBB952E0022B01D1136AF9E7032B4CD120
:10433000536AF5E7002D54D15988002945D15A68B0
:1043400022F47F42B2F5003F3FD11A7812F07F028B
:1043500016D19B88002B38D1444B00252268284673
:1043600055829361984728464FF6FF7123681A8A51
:104370008A4233D0022801D0002A55D108222EE0EB
:10438000012A0AD1374A5879126892699047E0B9F0
:1043900023689B7A002BDFD117E0022A15D15A79C6
:1043A00002F00F018B00100603F18043304803F543
:1043B000B8431B6800784CBF03F0300303F440534C
:1043C000884202D912F0700FE4D0264B22681B6895
:1043D00050781B6998470328C6D1236809221A72AE
:1043E00042E7082D04D11B785B06EED1214BB4E7E0
:1043F0000A2DEAD11A7802F07F02012AE5D19A7AD1
:10440000002AE2D059880029DFD15A6822F47F427D
:10441000B2F5803FD9D1134A587912689269904712
:104420000028D2D1144B98E793F90010002936DA0E
:10443000D9880C4801910068019D90F82C00AA428F
:1044400084B21BD9019A1A829C82FFF751FD0BE7B7
:10445000B8220020505C00400430002002300020D0
:10446000C022002090220020D0210020693E0008B8
:1044700094000020213E0008453E00088A42E3D215
:10448000944203D90021094A1170DDE792FBF0F153
:1044900000FB1122002AD7D1044A0121F4E70322AC
:1044A0001A724FF44052024B1A80DDE6CC210020F4
:1044B000BE220020F8B5334D2C68237A022B5ED043
:1044C000042B5CD0032B01D0052B52D1A369B3B1CF
:1044D000268AA6B1A28A964228BF16463046984739
:1044E000238A07469B1B2382638A0020334463820E
:1044F00000F084FA32460146384600F088F9238AF3
:1045000053B100214FF440521F4B08461A8000F06F
:1045100083FA30221D4B1A80268AA28A2B68B24267
:1045200009D803221A722B681B7A2A681372BDE815
:10453000F840FFF73DBE0EB10522F3E706221A72DE
:10454000134B1B689B6898472B6810491B7A082BF4
:1045500006D14FF480520C4B1A8010230B80E2E7F7
:104560000C4B1A680C4B92B213445B001E60302354
:10457000F4E7072B03D1064B1B68DB689847082339
:10458000D3E700BFB8220020BE220020C0220020B6
:1045900090220020505C004002300020F0B5002244
:1045A00040F60F7548F280060A4B1C78A24204D3ED
:1045B000094B40F080001860F0BD02F1805303F514
:1045C000B8539B00196842EA06072940394319602D
:1045D0000132EBE7940000204C5C004010B5134C16
:1045E00023681A7A022A01D0042A09D1FFF780FC35
:1045F00023681B7A22681372BDE81040FFF7D8BD0C
:10460000062A10D15A78052A09D11A78520606D1FD
:10461000D878FFF7C3FF064B1B681B6A9847054B0A
:104620001B689B6898470823E4E700BFB822002076
:10463000B42200209022002070470000064B074A59
:104640000749136002221A72064B074A1360074A91
:104650001B681160184700BF98220020B822002074
:10466000B80000206400002090220020B422002026
:1046700000232DE9F743DFF87091DFF87081ADF882
:104680000630D9F80030524A99B21B0411804CD53B
:10469000138803F00F0388F80030002B65D14BF628
:1046A000BF764C4C4C4D23684C4F9BB22B802B88D3
:1046B00003F030033B802B8803F440532B802368A6
:1046C000334083F4005383F0200343F4004343F06A
:1046D00080032360138813F0100F236828D123F47C
:1046E000E14323F070031B041B0C2360FFF776FFEC
:1046F00023682A883340D6042A8848BF83F480532D
:1047000095043A8848BF83F40053D4063A8848BFDA
:1047100083F01003900648BF83F0200343F4004366
:1047200043F080032B4A9BB2136003B0BDE8F083D3
:104730009BB2ADF80630BDF806301A0508D52368DF
:1047400023F070031B051B0D2360FFF751FDCFE71E
:10475000BDF806301B0494D5236823F070031B05B5
:104760001B0D2360FFF7A6FEC2E79A0002F180420C
:1047700002F5B842116889B2ADF80610BDF806100E
:1047800009040AD51168013B21F070010905090DE2
:104790001160134A52F823309847BDF806301A06C4
:1047A0007FF56FAF98F80020930003F1804303F585
:1047B000B8431968013A21F4E14121F0700109047C
:1047C000090C1960074B53F82230984759E700BF8E
:1047D0005C220020005C0040BE220020C02200209D
:1047E000380000201C000020445C0040942200207F
:1047F00001F10051013201F540515210490002B956
:10480000704730F8023B013A21F8043BF7E70023F8
:1048100010B501F10051013201F54051521049002B
:104820009A4200D110BD51F8234020F813400133C3
:10483000F6E70000014B1860704700BF445C004081
:104840004FF6F873014A034013607047505C004014
:10485000800000F1804000F5B840036823F4EC4389
:1048600023F07003194389B201607047800000F1A2
:10487000804000F5B8400368CA0623F4E04323F003
:1048800040039BB248BF83F010038A0648BF83F001
:10489000200343F4004343F080030360704780002B
:1048A00000F1804000F5B8400368CA0423F4804357
:1048B00023F070039BB248BF83F480538A0448BF3F
:1048C00083F4005343F4004343F0800303607047D4
:1048D000800000F1804000F5B840006800F0300032
:1048E0007047800000F1804000F5B840036823F471
:1048F000E04323F040039BB283F0300343F40043D2
:1049000043F0800303607047800000F1804000F5B1
:10491000B840036823F4804323F070039BB283F410
:10492000405343F4004343F080030360704780002A
:1049300000F1804000F5B840036823F4F8731B05CC
:104940001B0D43F4004343F0800303607047FFF7FF
:10495000EEBF800000F1804000F5B84003685B04C2
:1049600009D5036823F0F0031B051B0D43F44043F6
:1049700043F0800303607047800000F1804000F541
:10498000B84003685B0609D5036823F0F0031B05F4
:104990001B0D43F4004343F0C00303607047000065
:1049A000064B49081B6849009BB203EBC00000F1AD
:1049B000005000F54050400001607047505C0040DE
:1049C000054B49081B6849009BB203EBC000034B31
:1049D00003445B0019607047505C004004300020C5
:1049E000054B1B689BB203EBC00000F1005000F5C3
:1049F0004050400000887047505C0040044B1B68EA
:104A00009BB203EBC000034B03445B001888704764
:104A1000505C004004300020044B1B689BB203EB49
:104A2000C000034B03445B0019607047505C0040BA
:104A3000023000200D4B0E4A1B683E299BB203EB4F
:104A4000C00002444FEA42020AD94B09C80604BF1B
:104A500003F1FF339BB29B0243F4004313607047A2
:104A60004B08C90748BF01339B02F7E7505C004081
:104A700006300020054B1B689BB203EBC000044BC3
:104A800003445B001868C0F309007047505C0040A5
:104A900006300020C3B2000A40EA0320704700003D
:104AA0000020044B044A18604FF43F431380034A2C
:104AB00013607047445C0040BC220020405C004012
:104AC000B0F17E5F62D02DE9F047A0F50001B1F1B1
:104AD000FE4F82B002465BD202F1404505F54D051E
:104AE0003A4CE80DC005C5F3C34A04EB0A1A101A84
:104AF00000F006FCDAE9002300F05AFC0022344BF7
:104B000000F09EFA02460B4606460F4600F050FCA7
:104B100004F588738046D3E9002389463046394638
:104B200000F046FC04F58C73D3E9002300F08AFA08
:104B300004F58473CDE90001D3E9002340464946DA
:104B400000F036FCDDE9002300F07CFA42464B46DB
:104B500000F02EFC80468946E81504F5807400F0CC
:104B6000BDFBD4E9002300F023FCDAE9022300F0C6
:104B700069FA32463B4600F065FA42464B4600F081
:104B800061FA00F0AFFE02B0BDE8F0870020704788
:104B900041000FD0B0F1FF4F0346F4D000280FDBE7
:104BA000B1F17F4F0CD24FF0964100F0F9FFA0F128
:104BB000386291E7012002B0BDE8F04700F016BA74
:104BC000184602B0BDE8F04700F020BAD0B40008A3
:104BD0000000F03F000000002DE9F04FA0F50004B8
:104BE0004A00B4F1FE4F0D468A4687B00346804620
:104BF00002F1FF3180F0F380C348814200F251811D
:104C00000023039308F1404606F54D06BF4CF70D0F
:104C1000FF05C6F3C34604EB0616A8EB070000F039
:104C20006FFBD6E9002300F0C3FB0022B84B00F075
:104C300007FA02460B468046894600F0B9FB8246D9
:104C4000F8158B4600F04AFBD6E9022300F0FAF98A
:104C500004F590730646D3E900230F4640464946C3
:104C600000F0A6FB02460B463046394600F0EAF952
:104C700004F58073CDE90001D3E90023404649469D
:104C800000F096FB04F58473D3E9002300F0DAF911
:104C90005B4606460F4652465946504600F088FB92
:104CA00002460B463046394600F082FB06460F4668
:104CB00004F58873D3E900234046494604F58C7413
:104CC00000F076FBD4E9002300F0BCF95B465246C5
:104CD00000F06EFBDDE9002300F0B4F932463B46FC
:104CE00000F0B0F9064628460F4600F009FB0246E0
:104CF0000B463046394600F05BFB0027002348F2A4
:104D0000BE06CA0B92B29F4208BF96420D4683462A
:104D10007ED3804C584604F58073D3E9006729465A
:104D200032463B4600F08EF932463B468046894685
:104D300000F086F902460B465846294600F080F9F5
:104D400008F01F0A04F58C7304EBCA05D3E90023AD
:104D500006460F46CDE90089D5E90089CDE90489E9
:104D600000F026FB00226A4B00F06CF904F5847316
:104D70008246D3E900238B4604F5887430463946D1
:104D800000F016FBD4E9002300F05CF9324604463B
:104D90000D463B463046394600F00AFB02460B46BC
:104DA0002046294600F004FB52465B4600F04AF9D3
:104DB000DDE900890022039B18EB03084FEAC833A2
:104DC000DDE9048918EB020849EB030942464B462A
:104DD00000F0EEFA00F086FD07B0BDE8F08F4A4C17
:104DE000A1425ED84600721EA24265D800282DDB83
:104DF00000220392B8F5000FBFF404AF18464FF03D
:104E0000964100F0CDFE20F00040A0F13868F9E6B0
:104E100039A3D3E9002300F05BFD002838D15846C0
:104E2000294600223C4B00F03FFD28BB34A3D3E9C8
:104E300000235846294600F02DFD00283FF469AFB5
:104E4000039807B0BDE8F04F00F0C8B8C5F3C752EB
:104E50007E2A17DD962A21DC0121C2F1960201FA91
:104E600002F2511E29420DD12A4018BF4FF4803260
:104E7000039228F00048BDE7039807B0BDE8F04F63
:104E800000F0A8B8184607B0BDE8F04F00F0BEB873
:104E9000039807B0BDE8F04F00F0A4B800220392D9
:104EA000E7E7002A3AD188F48002520012F5000F99
:104EB0001BD84FF07E508FE7014600F071FEB8F12D
:104EC000000F52DB0023002E45D1BAF1000F83DA28
:104ED000184607B0BDE8F04F00F088B88AF4800AA1
:104EE0004FEA4A0212F5000FE3D92946184600F0AE
:104EF0004FFD71E7AFF3008071D5D1FFFFFF5F4039
:104F00000000000000A062C0FEFFFFFEF0B5000838
:104F10000000F03F18B7000800C062C0B8F17E5F23
:104F2000DCD04FEA4808B8F17F4FDED8B2F17F4FAE
:104F3000DBD1B8F1FE4FBCD0B8F1FE4F6FEA0A0AE0
:104F400034BF4FF000084FF001084FEADA7AD0453D
:104F50001FD0002040E7BAF1000FBFF63DAF014679
:104F60004FF07E5000F0D0FE36E7C5F3C753A3F1F3
:104F70007F02172AA6D80122C3F1960302FA03F38F
:104F8000591E29429ED12B409DD000F1004013466E
:104F900099E72946284600F003FE1DE738B5044688
:104FA0000D4600F083FF0560204638BD08B540B1CE
:104FB00001F1004000F0F4FDBDE808402221FFF7B8
:104FC000EDBF084600F0ECFDBDE808402221FFF7E8
:104FD000E5BF00BF4FF08051FFF7E8BF4FF0D15160
:104FE000FFF7E4BF4FF0E041FFF7E0BF08B548B975
:104FF0004FF07E50002100F087FEBDE808402221DE
:10500000FFF7CCBF0048F5E7000080BF38B5014688
:10501000044600F0BBFC014600F076FE2146054642
:10502000204600F00DFF28B92846BDE83840212170
:10503000FFF7B4BF284638BD81F0004102E000BF51
:1050400083F0004330B54FEA41044FEA430594EA48
:10505000050F08BF90EA020F1FBF54EA000C55EA83
:10506000020C7FEA645C7FEA655C00F0E2804FEA54
:105070005454D4EB5555B8BF6D420CDD2C4480EA36
:10508000020281EA030382EA000083EA010180EA66
:10509000020281EA0303362D88BF30BD11F0004FB4
:1050A0004FEA01314FF4801C4CEA113102D04042EA
:1050B00061EB410113F0004F4FEA03334CEA133325
:1050C00002D0524263EB430394EA050F00F0A7803D
:1050D000A4F10104D5F1200E0DDB02FA0EFC22FA38
:1050E00005F2801841F1000103FA0EF2801843FA2C
:1050F00005F359410EE0A5F120050EF1200E012A1D
:1051000003FA0EFC28BF4CF0020C43FA05F3C0185A
:1051100051EBE37101F0004507D54FF0000EDCF1D3
:10512000000C7EEB00006EEB0101B1F5801F1BD37C
:10513000B1F5001F0CD349085FEA30004FEA3C0C80
:1051400004F101044FEA445212F5800F80F09A8076
:10515000BCF1004F08BF5FEA500C50F1000041EB7A
:10516000045141EA050130BD5FEA4C0C404141EB7E
:10517000010111F4801FA4F10104E9D191F0000FA5
:1051800004BF01460020B1FA81F308BF2033A3F128
:105190000B03B3F120020CDA0C3208DD02F1140C1F
:1051A000C2F10C0201FA0CF021FA02F10CE002F15A
:1051B0001402D8BFC2F1200C01FA02F120FA0CFC53
:1051C000DCBF41EA0C019040E41AA2BF01EB04519C
:1051D000294330BD6FEA04041F3C1CDA0C340EDC9A
:1051E00004F11404C4F1200220FA04F001FA02F3DD
:1051F00040EA030021FA04F345EA030130BDC4F19B
:105200000C04C4F1200220FA02F001FA04F340EA8F
:105210000300294630BD21FA04F0294630BD94F040
:10522000000F83F4801306BF81F480110134013D27
:105230004EE77FEA645C18BF7FEA655C29D094EA98
:10524000050F08BF90EA020F05D054EA000C04BF16
:105250001946104630BD91EA030F1EBF0021002001
:1052600030BD5FEA545C05D14000494128BF41F0A0
:10527000004130BD14F580043CBF01F5801130BD04
:1052800001F0004545F0FE4141F470014FF000008F
:1052900030BD7FEA645C1ABF194610467FEA655C40
:1052A0001CBF0B46024650EA013406BF52EA0335E2
:1052B00091EA030F41F4002130BD00BF90F0000FD0
:1052C00004BF0021704730B54FF4806404F132040C
:1052D0004FF000054FF0000150E700BF90F0000FC5
:1052E00004BF0021704730B54FF4806404F13204EC
:1052F00010F0004548BF40424FF000013EE700BFBC
:1053000042004FEAE2014FEA31014FEA02701FBF4B
:1053100012F07F4393F07F4F81F06051704732F07D
:105320007F4208BF704793F07F4F04BF41F40021D4
:10533000704730B54FF4607401F0004521F0004132
:105340001CE700BF50EA010208BF704730B54FF0BC
:1053500000050AE050EA010208BF704730B511F0BD
:10536000004502D5404261EB41014FF4806404F1F5
:1053700032045FEA915C3FF4D8AE4FF003025FEA7B
:10538000DC0C18BF03325FEADC0C18BF033202EBFF
:10539000DC02C2F1200300FA03FC20FA02F001FA59
:1053A00003FE40EA0E0021FA02F11444BDE600BFFC
:1053B00070B54FF0FF0C4CF4E06C1CEA11541DBFAB
:1053C0001CEA135594EA0C0F95EA0C0F00F0DEF876
:1053D0002C4481EA030621EA4C5123EA4C5350EA5B
:1053E000013518BF52EA033541F4801143F48013AC
:1053F00038D0A0FB02CE4FF00005E1FB02E506F03D
:105400000042E0FB03E54FF00006E1FB03569CF091
:10541000000F18BF4EF0010EA4F1FF04B6F5007F97
:1054200064F5407404D25FEA4E0E6D4146EB060609
:1054300042EAC62141EA55514FEAC52040EA5E5092
:105440004FEACE2EB4F1FD0C88BFBCF5E06F1ED83C
:10545000BEF1004F08BF5FEA500E50F1000041EB73
:10546000045170BD06F0004646EA010140EA020020
:1054700081EA0301B4EB5C04C2BFD4EB0C0541EA42
:10548000045170BD41F480114FF0000E013C00F357
:10549000AB8014F1360FDEBF002001F0004170BD7B
:1054A000C4F10004203C35DA0C341BDC04F1140494
:1054B000C4F1200500FA05F320FA04F001FA05F220
:1054C00040EA020001F0004221F0004110EBD370ED
:1054D00021FA04F642EB06015EEA430E08BF20EA19
:1054E000D37070BDC4F10C04C4F1200500FA04F3BC
:1054F00020FA05F001FA04F240EA020001F000414E
:1055000010EBD37041F100015EEA430E08BF20EAC0
:10551000D37070BDC4F1200500FA05F24EEA020E08
:1055200020FA04F301FA05F243EA020321FA04F037
:1055300001F0004121FA04F220EA020000EBD370EE
:105540005EEA430E08BF20EAD37070BD94F0000FEE
:105550000FD101F00046400041EB010111F4801F22
:1055600008BF013CF7D041EA060195F0000F18BFD3
:10557000704703F00046520043EB030313F4801F0F
:1055800008BF013DF7D043EA0603704794EA0C0FC9
:105590000CEA135518BF95EA0C0F0CD050EA4106DF
:1055A00018BF52EA4306D1D181EA030101F000415C
:1055B0004FF0000070BD50EA410606BF1046194684
:1055C00052EA430619D094EA0C0F02D150EA013690
:1055D00013D195EA0C0F05D152EA03361CBF1046D1
:1055E00019460AD181EA030101F0004141F0FE4170
:1055F00041F470014FF0000070BD41F0FE4141F4F4
:10560000780170BD70B54FF0FF0C4CF4E06C1CEAF3
:1056100011541DBF1CEA135594EA0C0F95EA0C0FA8
:1056200000F0A7F8A4EB050481EA030E52EA033563
:105630004FEA013100F088804FEA03334FF0805584
:1056400045EA131343EA12634FEA022245EA1115B1
:1056500045EA10654FEA00260EF000419D4208BF62
:10566000964244F1FD0404F5407402D25B084FEA0F
:105670003202B61A65EB03055B084FEA32024FF4BB
:1056800080104FF4002CB6EB020E75EB030E22BF18
:10569000B61A754640EA0C005B084FEA3202B6EBD8
:1056A000020E75EB030E22BFB61A754640EA5C0087
:1056B0005B084FEA3202B6EB020E75EB030E22BF17
:1056C000B61A754640EA9C005B084FEA3202B6EB18
:1056D000020E75EB030E22BFB61A754640EADC00D7
:1056E00055EA060E18D04FEA051545EA16754FEA39
:1056F00006164FEAC30343EA52734FEAC2025FEA57
:105700001C1CC0D111F4801F0BD141EA00014FF0E5
:1057100000004FF0004CB6E711F4801F04BF0143B6
:105720000020B4F1FD0C88BFBCF5E06F3FF6AFAED2
:10573000B5EB030C04BFB6EB020C5FEA500C50F162
:10574000000041EB045170BD0EF0004E4EEA1131E5
:1057500014EB5C04C2BFD4EB0C0541EA045170BDEC
:1057600041F480114FF0000E013C90E645EA060E30
:105770008DE60CEA135594EA0C0F08BF95EA0C0F5E
:105780003FF43BAF94EA0C0F0AD150EA01347FF4A6
:1057900034AF95EA0C0F7FF425AF104619462CE77D
:1057A00095EA0C0F06D152EA03353FF4FDAE1046E0
:1057B000194622E750EA410618BF52EA43067FF431
:1057C000C5AE50EA41047FF40DAF52EA43057FF4C1
:1057D000EBAE12E74FF0FF3C06E000BF4FF0010CCC
:1057E00002E000BF4FF0010C4DF804CD4FEA410C30
:1057F0007FEA6C5C4FEA430C18BF7FEA6C5C1BD0FD
:1058000001B050EA410C0CBF52EA430C91EA030F7D
:1058100002BF90EA020F0020704710F1000F91EADA
:10582000030F58BF994208BF90422CBFD8176FEAA8
:10583000E37040F0010070474FEA410C7FEA6C5C76
:1058400002D150EA013C07D14FEA430C7FEA6C5C7D
:10585000D6D152EA033CD3D05DF8040B704700BFA9
:105860008446104662468C461946634600E000BFF7
:1058700001B5FFF7B7FF002848BF10F1000F01BDC9
:105880004DF808EDFFF7F4FF0CBF012000205DF894
:1058900008FB00BF4DF808EDFFF7EAFF34BF012019
:1058A00000205DF808FB00BF4DF808EDFFF7E0FFB2
:1058B00094BF012000205DF808FB00BF4DF808ED03
:1058C000FFF7CEFF94BF012000205DF808FB00BF6A
:1058D0004DF808EDFFF7C4FF34BF012000205DF84C
:1058E00008FB00BF4FEA4102B2F1E04324BFB3F529
:1058F000001CDCF1FE5C0DD901F0004C4FEAC00247
:105900004CEA5070B2F1004F40EB830008BF20F02A
:105910000100704711F0804F21D113F13872BCBFE4
:1059200001F00040704741F480114FEA5252C2F139
:105930001802C2F1200C10FA0CF320FA02F018BF82
:1059400040F001004FEAC1234FEAD32303FA0CFCD5
:1059500040EA0C0023FA02F34FEA4303CCE77FEA64
:10596000625307D150EA01331EBF4FF0FE4040F4AE
:105970004000704701F0004040F0FE4040F400005D
:10598000704700BF80F0004002E000BF81F000419E
:1059900042001FBF5FEA410392EA030F7FEA226CD5
:1059A0007FEA236C6AD04FEA1262D2EB1363C1BF65
:1059B000D218414048404140B8BF5B42192B88BFD4
:1059C000704710F0004F40F4000020F07F4018BFF7
:1059D000404211F0004F41F4000121F07F4118BF17
:1059E000494292EA030F3FD0A2F1010241FA03FCBF
:1059F00010EB0C00C3F1200301FA03F100F00043A7
:105A000002D5494260EB4000B0F5000F13D3B0F16E
:105A1000807F06D340084FEA310102F10102FE2ADD
:105A200051D2B1F1004F40EBC25008BF20F001004D
:105A300040EA03007047490040EB000010F4000FFB
:105A4000A2F10102EDD1B0FA80FCACF1080CB2EB8E
:105A50000C0200FA0CF0AABF00EBC25052421843ED
:105A6000BCBFD0401843704792F0000F81F4000192
:105A700006BF80F400000132013BB5E74FEA410365
:105A80007FEA226C18BF7FEA236C21D092EA030FD1
:105A900004D092F0000F08BF0846704790EA010F4B
:105AA0001CBF0020704712F07F4F04D1400028BF78
:105AB00040F00040704712F100723CBF00F500005A
:105AC000704700F0004343F0FE4040F40000704790
:105AD0007FEA226216BF08467FEA2363014642023C
