:020000040800F2
:1000000000500020CD010008D1010008D3010008F4
:100010001102000813020008290200080000000075
:100020000000000000000000000000003F02000887
:10003000410200080000000043020008911400087B
:100040005902000859020008590200085902000824
:100050005902000859020008590200085902000814
:100060005902000859020008590200085902000804
:1000700059020008590200085902000859020008F4
:1000800059020008590200085902000859020008E4
:10009000010400085902000859020008590200082A
:1000A00059020008590200085902000859020008C4
:1000B000590200080D2500085902000859020008DD
:1000C00059020008590200085902000859020008A4
:1000D0005902000859020008590200085902000894
:1000E0005902000859020008050400080000000039
:1000F0000000000000000000000000000000000000
:1001000000000000000000005FF808F107B501F0F2
:1001100075F8234A234B24498B4204D252F8040F2A
:1001200043F8040BF8E7214B214A0021934202D205
:1001300043F8041BFAE701F06DF801A9684600F0E6
:10014000F3FF1C4B1C4C1E46E41AA4100025AC42C5
:1001500004DD56F8253098470135F8E7174B184C61
:100160001E46E41AA4100025AC4204DD56F82530E2
:1001700098470135F8E79DE8030002F01DFA114B9E
:1001800006461D46104CE41AA410002C04DD013C68
:1001900055F824309847F8E7304600F061FF00BF7B
:1001A00054C700080000002038100020381000203C
:1001B000CC22002084020008840200088402000887
:1001C0008402000884020008840200081E480047D8
:1001D000FEE71EF0040F0CBFEFF30880EFF3098079
:1001E00071461A4A104710B5084C236B9B070BD574
:1001F000E36A002B08DA4BF6AB6101F00DF818B199
:100200004FF00043E36210BDFEE700BF00ED00E0E9
:10021000FEE71EF0040F0CBFEFF30880EFF3098038
:1002200071460B4A1047FEE71EF0040F0CBFEFF3B8
:100230000880EFF309807146064A1047FEE7FEE7A3
:10024000FEE7FEE7704700000D010008E701000827
:0A025000270200083D020008FEE747
:10025C0058C70008000000203810002058C70008BC
:10026C00000000000000000038100020CC2200200C
:08027C0000000000000000007A
:10028800002330B51D46DCB2A2420CD9040F092C5C
:1002980094BF3034373401F8134001EB43040001B4
:1002A80065700133EFE730BD13B50121042000F07C
:1002B80073FD4FF4C053ADF804300324182301A98B
:1002C8000E488DF807308DF8064000F0ABFB012191
:1002D8003C2000F061FD0423ADF8043001A914238B
:1002E80007488DF807308DF8064000F09BFB012188
:1002F800082000F051FD02B010BD00BF0008014009
:10030800000C014008B5012000F0DEFCBDE8084003
:1003180001214FF4000000F04BBD13B54FF4A0606D
:1003280000F018FB14238DF8043002238DF80530F3
:100338000124002301A88DF806308DF8074000F04D
:1003480013FB2A2301A88DF804308DF8054000F02E
:100358000BFB02B010BD0000042110B1024800F0F0
:10036800BBBB014800F0B6BB000C01400A4B0B4A6E
:100378001B68106810B518180CD0094B08221C68A7
:100388000849FFF77DFF2046BDE8104004220649D2
:10039800FFF776BF10BD00BFE8F7FF1FF0F7FF1F9C
:1003A800ECF7FF1F02000020120000203F2910B5C3
:1003B8004FF000030FD8094A8CB21360C0212246BF
:1003C80004F086FA2146012004F05AFB012004F0CB
:1003D800FAFA012010BD184610BD00BF80060020A3
:1003E80008B5044B002203201A6004F0FFFA01202C
:1003F80008BD00BF8406002000F024B87047000044
:10040800014B01221A6070478006002038B50A4B5C
:10041800012203201A6004F0B5FB084D084C28603F
:1004280002464FF48871204604F064FA2968204691
:10043800BDE8384003F088BC840600206022002014
:100448001122002070B5504C504D2368504E9BB27D
:100458002B802A88318888B00A40900507D54FF646
:10046800FF534C4A236013780133DBB213702B8897
:100478000B40190401D504F06FF92A88338813401A
:100488005A0505D54FF6FF332360434B5B68984701
:100498002A8831880A40930444BF4DF6FF732360CD
:1004A8002B880B40D80405D54EF6FF730020236037
:1004B80000F0FCF92A883388134019050BD5374B0F
:1004C8001B7813B100F0A2F902E0022000F0EEF967
:1004D8004FF2FF7323602A8833881340DA0550D51A
:1004E8004FF6FF6323602E4B2E481B6813F4004F12
:1004F80042D00368013303600368032B3ED92A49BD
:100508000B6813F0080339D10D68284AADB215609D
:1005180003F1805505F5B855AD002D6808AE06EB1A
:1005280083060133ADB2082B46F8205CF0D113687E
:1005380043F00103136013689BB20B60136823F048
:100548000103136013689BB20B6023685B05FCD53D
:100558004FF6FF320C4B1A60002308A901EB830108
:1005680003F1805251F8201C02F5B8520133920071
:1005780089B2082B1160F0D100230360072000F036
:1005880095F908B070BD00BF445C004064220020AB
:10059800C42200203C1000205C000020E200002063
:1005A800485C004040100020405C004038100020AB
:1005B800034B9B7A13B1034B05221A60704700BFA7
:1005C800A022002048100020014B04221A60704726
:1005D80048100020034B1A78202A04BF00221A7002
:1005E800704700BF4410002070470000212810B554
:1005F80008D1114B1B681B7803F07F03212B10D007
:10060800022010BD2028FBD10B4B0C4A1B681B781D
:10061800107003F07F03212B094B18BF00230BB97F
:10062800EEE7084B044A002412682046936154827E
:100638009847204610BD00BFC0220020441000206B
:10064800850600089D060008074B1B681B7803F009
:100658007F03212B06D100F0DF00022814BF0220FF
:100668000020704702207047C022002021B90128CD
:100678008CBF0220002070470220704720B9034B2E
:1006880008221B681A82704701487047C022002060
:10069800D8000020FFF7F2BF10B5FFF767FE054B43
:1006A80000241B689C7200F095F804F073FA024B62
:1006B8001C6010BDC022002048100020334B344A73
:1006C8001B68D27910B500245A729C72DC722046DD
:1006D80004F028F94FF40071204604F02BF910219A
:1006E800204604F035F94021204604F019FA80210B
:1006F800204604F003FA204604F09BF9254B2046D7
:1007080093F82C1004F0CAF9204604F06FF921463A
:10071800012004F00FF9C021012004F0EFF9202195
:10072800012004F015F92146012004F02AF94FF4BC
:10073800C061022004F0FEF84FF48071022004F03A
:10074800DDF92146022004F01CF92021022004F0E2
:10075800FFF82146032004F0EDF84FF488710320D8
:1007680004F0DEF94021032004F098F94FF44051D9
:10077800032004F006F92146032004F0E9F8204696
:1007880003F080FF044B01221A6010BDC022002034
:100798008EAF00085C00002048100020014903F0DB
:1007A8004DBD00BFB0000020014903F047BD00BFA8
:1007B80054000020054B1B68DB78032B04D8044940
:1007C80001EBC30103F03ABD00207047C0220020AE
:1007D800B800002070B50120094DFFF7BDFD094E96
:1007E80001232B600024084B348020462C601B68B2
:1007F80004F092F84FF4E053338020462B6070BD2C
:10080800405C0040C4220020445C00401E4A30B5D1
:1008180013681E4C9BB2002101F1805000F5B850BE
:1008280080000068194D80B244F821000131082980
:10083800F2D143F4806123F0010311609BB241F0CF
:1008480001011160124843F4806111600168490593
:10085800FCD54FF6FF300E490860002155F82140BD
:1008680001F1805000F5B85001318000A4B2082988
:100878000460F3D143F48163136013689BB243F0BF
:100888000403136030BD00BF405C00406C220020B0
:10089800445C00404FF6FB72034B19680A401A602B
:1008A8004FF43F421A607047405C004010B5264C38
:1008B800072818BF20702378052B41D8DFE803F0FC
:1008C800030B1317212C214B1B6813B9FFF7E2FF09
:1008D80036E0052335E0FFF7DDFF042323701B4BCB
:1008E80001221A6010BD02236370032329E0637894
:1008F800013BDBB26370637823BB134B04221A708D
:1009080010BD134A13689BB243F01003136005230C
:1009180023700A23637010BD6378013BDBB26370F8
:10092800637803F0FF016BB94FF6EF73084A10685C
:1009380003401360044B06221A70044B196010BD63
:100948000623237010BD00BF682200204C10002031
:10095800405C004040F0BF60024B40F40030D8607B
:10096800704700BF00ED00E0C27810B503780AB305
:10097800164A03F16043D1684278C943C1F30221A2
:10098800C1F1040402FA04F40F22CA40817803F585
:1009980061430A4022431201D2B283F8002303784C
:1009A8000122590903F01F0302FA03F3084A42F827
:1009B800213010BD5A09012103F01F0301FA03F386
:1009C8000349203241F8223010BD00BF00ED00E09D
:1009D80000E100E008B5012000F0F6F9BDE80840A4
:1009E800002000F0F1B9000082B000230193044B0D
:1009F8000193019B18440190019B196002B0704754
:100A0800006C004082B000230193054B0193019BC9
:100A180018440190019B188880B202B0704700BF4B
:100A2800006C0040CA782DE9F041D40648BF8C78A4
:100A38000E8802F00F0348BF234316F0FF0F1ED0A5
:100A4800016800244FF0010E4FF00F0C0EFA04F766
:100A580037EA06050FD1A5000CFA05F821EA0801C6
:100A680003FA05F5282A41EA050101D1476102E0A8
:100A7800482A08BF07610134082CE7D10160FF2E1E
:100A880020D9416800244FF0010E4FF00F0C04F1FB
:100A980008050EFA05F535EA06070FD1A7000CFA86
:100AA80007F821EA080103FA07F7282A41EA0701AB
:100AB80001D1456102E0482A08BF05610134082CCC
:100AC800E5D14160BDE8F0818368194214BF012077
:100AD8000020704701617047416170470028164A3D
:100AE80030B500F44015B4BFD3695368B5F5401F5D
:100AF80084B206D1556823F0706325F0706555609F
:100B08000EE0C20255BF420D03221201C0F3034595
:100B18004CBFAA4004FA02F223EA020343F07063CE
:100B280019B1420D120194402343034A0028B4BF6F
:100B3800D361536030BD00BF0000014070B586B07E
:100B48000446868801A80D4600F0E2F8039A2E486C
:100B580026F03F06B2FBF0F03604360C81B20E43A5
:100B6800A6802388294E23F001031B041B0C238035
:100B78002B68B3420AD85B00B2FBF3F301319BB296
:100B8800032B89B298BF0423218423E04BF6FF711D
:100B9800EE888E421BBF19214B4303EB4303B2FB84
:100BA800F3F30BBFB2FBF3F39BB29BB243F4804366
:100BB800C3F30B020AB943F001034FF4967101FB2A
:100BC80000F24FF47A7192FBF1F2013292B243F4DF
:100BD80000432284A3832388A9889BB243F001039E
:100BE800238023886A8923F4816323F002031B048A
:100BF8000A431B0C13439BB22380AA892B891343F6
:100C08009BB2238106B070BD40420F00A086010050
:100C1800038819B19BB243F0010303E023F00103F9
:100C28001B041B0C03807047038819B19BB243F463
:100C3800807303E023F480731B041B0C038070474C
:100C4800038819B19BB243F4007303E023F40073E3
:100C58001B041B0C038070470182704712B141F0DE
:100C6800010101E001F0FE0189B201827047838A27
:100C7800008B9BB243EA004321F07F4203EA020063
:100C8800431A58425841704782B000230093019399
:100C98000B0F01900093009B21F07F4113B1019B42
:100CA800143302E0019B090C18330193019B1B6864
:100CB800194214BF0120002002B07047014B186090
:100CC800704700BF20000E42014B1860704700BFFC
:100CD800D8004242064B002201281A701A7002D02E
:100CE800042802D070471870704705221A707047A0
:100CF80020100240024A136A18431062704700BF6E
:100D080000100240014B1860704700BF3C0442428B
:100D18001C4A10B5536803F00C03042B01D0082BB0
:100D280001D0194B0EE053685168C3F38343CC03D9
:100D380003F1020302D55168890301D5134900E084
:100D480011494B4303605368114CC3F30313E15C2F
:100D58000368CB4043605168C1F30221615C23FA08
:100D680001F181605168C1F3C221615CCB40C3606D
:100D780052680849C2F381328A5CB3FBF2F303611B
:100D880010BD00BF0010024000127A0000093D00AB
:100D9800E7000020E3000020044B9A6909B11043E2
:100DA80001E022EA00009861704700BF001002408D
:100DB800044BDA6909B1104301E022EA0000D86166
:100DC800704700BF00100240014B1860704700BF19
:100DD800400442424209012A074B01D11B6803E043
:100DE800022A0CBF1B6A5B6A00F01F0023FA00F09E
:100DF80000F00100704700BF00100240034A9388CA
:100E08009BB243F010039380704700BF0028004056
:100E1800034A938823F010031B041B0C938070472C
:100E280000280040034A938B108B9BB243EA004092
:100E3800704700BF0028004008B5FFF7DFFF044BEC
:100E4800020C80B21A839883BDE80840FFF7E0BF20
:100E58000028004008B5FFF7D1FF054BC0F3034257
:100E680080B21A819881BDE80840FFF7D1BF00BF62
:100E780000280040024A93889B06FCD5704700BFB3
:100E880000280040054A938823F008031B041B0C24
:100E9800938093881B07FCD5704700BF002800404B
:100EA800224A038890429BB212D002F50062904217
:100EB8000ED0B0F1804F0BD0A2F59832904207D0F7
:100EC80002F58062904203D002F58062904203D11D
:100ED8004A8823F070031343154A904208D002F55C
:100EE800806290421FBF23F44073CA889BB21343A9
:100EF80003808B8883850B8803850C4B98420FD021
:100F080003F5006398420BD003F54063984207D07D
:100F180003F58063984203D003F58063984201D1BA
:100F28000B7A038601238382704700BF002C01409F
:100F380000100040038C70B523F001031B041B0C48
:100F48000384028C8688038B0D8823F073031B04AB
:100F58001B0C1D4322F002020C894B881204120C50
:100F680023431343144AB6B290429BB20FD002F502
:100F7800006290420BD002F54062904207D002F521
:100F88008062904203D002F5806290420ED14C8973
:100F980023F008031C438B8824F0040426F44072D1
:100FA80023438E89CC893443224396B2CA888680EB
:100FB80005838286038470BD002C0140038819B123
:100FC8009BB243F0010303E023F001031B041B0C55
:100FD8000380704783899BB20AB1194301E023EA71
:100FE800010181817047FFF7F5BF038B23F00803E8
:100FF8001B041B0C194301837047038A828911EA79
:10100800030092B203D0114214BF012000207047A0
:10101800C94389B20182704708B50C4B1A680AB9EE
:101028000B4A1A601A68C31C23F0030309491344C6
:101038008B4206D905F07EFD0C2303604FF0FF308C
:1010480008BD024910460B6008BD00BF50100020C3
:10105800CC220020004C0020054B064C00B500288F
:1010680008BF1C46182528462146ABBE0446FEE7A5
:1010780026000200230002002DE9FF47DFF89C90BC
:101088004FF003080023CDF804900124CDF80C801C
:1010980001AF029320463946ABBE05461B4E0423DA
:1010A800CDF804903560CDF80C800293204639467F
:1010B800ABBE8246164D0823CDF80490C5F800A0B3
:1010C800CDF80C80029320463946ABBE0446114A3F
:1010D80011481460013408BF2B684FF0000108BFA5
:1010E80013604FF0FF3440F83140013114290A4BA6
:1010F800F9D1316828681268196000215960986030
:10110800D9601A61596104B0BDE8F087A8100020C1
:1011180054100020D4100020D8100020D1AF0008AF
:101128002DE9F04F314D85B04F2301908946029546
:10113800039302AE152420463146ABBE0446A846AA
:1011480044B1002288F80020294A4FF0010AC2F869
:1011580000802AE02646A246A346029F85F84F4013
:1011680097F90050F5B14EB905F0F6FC284490F90E
:101178000120002A14DB092D25D111E034B1AC423D
:101188000DD1002487F800B0264609E005F0E4FCFC
:10119800284490F90120002A24DB092D22D00126B9
:1011A8000137DDE7BAF1000FCBD0114B002243F82D
:1011B8002A20019AC2F800A0C9F80030FFF75CFFA6
:1011C80005B0BDE8F08FBAF1080FEEDC222D01D092
:1011D800272D01D12C460137054A42F82A700AF119
:1011E800010ADCE787F800B00026D9E7581000208C
:1011F800AC10002008B500F06BF8024B024A9A6068
:1012080008BD00BF00ED00E00000000800F0DAB8FB
:1012180038B5836904461B888B4251D190E8280071
:10122800013B302B4CD8DFE803F02C4246463E44C5
:1012380042423B3B4B3B3B3B3B3B423B424B3B19DC
:101248004B1F4B4B4B4B4B4B4B4B4B4B4B4B4B4B12
:101258004B4B4B4B4B4B4B4B4B3B3B0000232B60BF
:101268006B60AB60EB6026E0BFF34F8F1549164B00
:10127800CA6802F4E0621343CB60BFF34F8F00BF2C
:10128800FDE71249286806F00DF848B96B6893B174
:10129800042B01D102230DE0082B01D1032309E01F
:1012A8004FF0FF3306E02B68023B012B01D80023E7
:1012B80000E0AB682360A36901200233A36138BD55
:1012C800002038BD00ED00E00400FA05D1AF0008A9
:1012D800384B82B01A6842F001021A605968364ADF
:1012E8000A405A601A6822F0847222F480321A6026
:1012F8001A6822F480221A605A6822F4FE025A60A0
:101308004FF41F029A600022009201921A6842F478
:1013180080321A601A6802F400320192009A01328F
:101328000092019A1AB9009AB2F5A06FF2D11A6820
:1013380012F4003218BF01220192019A012A05D045
:101348001E4B4FF000629A6002B070471C4A116849
:1013580041F010011160116821F00301116011685A
:1013680041F0010111605A685A605A685A605A6817
:1013780042F480625A605A6822F47C125A605A68B1
:1013880042F488125A601A6842F080721A6019682A
:10139800084A8901FBD5516821F003015160516861
:1013A80041F0020151605A6802F00C02082AFAD191
:1013B800C6E700BF001002400000FFF800ED00E0A3
:1013C80000200240114A124B516801F00C01042917
:1013D80001D0082901D00F490EE051685068C1F3C7
:1013E8008341C00301F1020102D55068800301D591
:1013F800094800E007484143196052680749C2F3A9
:101408000312895C1A68CA401A60704700100240CB
:101418000801002000127A0000093D00F7000020B2
:101428000A4B4FF47A721B68B3FBF2F3013BB3F13A
:10143800807F09D2064AF0215360064B83F82310B7
:101448000023936007231360704700BF0801002042
:1014580010E000E000ED00E0024B18601A68002A76
:10146800FCD1704778110020054A136801331360D6
:10147800044B1A6812B11A68013A1A60704700BF23
:101488007C11002078110020FFF7EEBF2DE9F34111
:1014980001210420FFF780FC01210820FFF77CFCD4
:1014A80001211020FFF778FC01210220FFF780FCC2
:1014B80001210846FFF770FC264C01212648FFF75A
:1014C8000DFB264F01212648FFF708FB2046042183
:1014D800FFF702FB384604214FF00408FFF7FCFA37
:1014E80038460821FFF7F6FA102503260DEB080108
:1014F8002046ADF804808DF807508DF80660FFF798
:1015080091FA0C230DEB08013846ADF804308DF83C
:1015180007508DF80660FFF785FAE0230DEB080108
:101528002046ADF804308DF807808DF80660FFF787
:1015380079FA18230DEB080120468DF80730ADF82D
:101548000450FFF76FFA01210648FFF7C7FA02B007
:10155800BDE8F081000C01400001300000080140A6
:101568000002300000081A0010B5012186B04FF4BF
:101578008000FFF71DFC184B184C02930023ADF8B0
:101588000C304BF6FF73ADF80E30FE23ADF810307B
:101598004FF48063ADF8123002A94FF4804320461F
:1015A800ADF81430FFF7CAFA20460121FFF730FBE7
:1015B80001210820FFF7F0FB4FF44063ADF8043039
:1015C8001C238DF8073001A9022305488DF8063041
:1015D800FFF728FA06B010BD801A06000058004030
:1015E800000C014038B505460C464FF400311A4846
:1015F800FFF74AFB0028F8D101211748FFF714FB31
:1016080016491548FFF733FB0028F9D000227E2140
:101618001148FFF723FB12490F48FFF728FB002862
:10162800F9D029460C48FFF717FB0E490A48FFF77F
:101638001EFB0028F9D021460748FFF70DFB094992
:101648000548FFF714FB0028F9D001210248BDE83E
:101658003840FFF7F5BA00BF00580040010003000A
:10166800820007008400070070B52C4A2C4C516A90
:101678002368994205D8956AAB4202D2D66B294DA8
:1016880008E0D16A254D8B420FD32E6BB3420CD2A2
:10169800EE6B254D2EB1591A2E6800FA01F131432F
:1016A80002E0296840EA410129601268032A09D149
:1016B800A3F11102032A2DD81C4990400A6810434F
:1016C800086027E0052A25D1A3F11402032A06D8C9
:1016D800154DA3F1080200FA02F12A6807E0A3F108
:1016E8001801032906D8124D00FA02F229680A43A4
:1016F8002A6001E02F2B0DD803F007060122D90834
:101708000C4DB24010B1685C024302E0685C20EA0C
:1017180002026A540133236070BD00BFAC1100207F
:1017280090110020F01100200C120020041200205B
:1017380008120020A411002070B5294C2368002B42
:101748003AD0284A284B1168032904D0322929D0D5
:10175800022933D10FE01D681968C943C9B2B1EB3A
:10176800152F25D11968C9B2196020490D68196863
:1017780041EA052114E01D681968C943C9B2B1EBF3
:10178800152F0BD048F2EE71194D2E688E420FD1ED
:101798000B2111601968C1F3072129601968C9B2C2
:1017A80019600BE01D681968C9B2B1EB152FF5D0A7
:1017B80000200023236070BD184670BD12680C4DD0
:1017C80002702A680B49A0F801201A68A0F80320C3
:1017D8000A68427100221A6001202A600A60E8E75C
:1017E80010120020FC1100208C11002098110020FC
:1017F80084110020F81100202DE9F047934D4FF493
:1018080080519348FFF760F92A68002A40F049821E
:1018180090490B680E461BBB8F4A08B913681CE039
:1018280012689AB101220A608C490A608C490B60DF
:101838008C490B608C490B608C490B608C490B60A0
:101848008C4BFF2119608C4B1A702AE24FF6FE71FF
:101858008A4A13688B4200F224820133136020E223
:101868007E4FD7F800C0BCF1000F57D0824C58B15A
:1018780023780133DBB2E92B237040F21981764BD0
:101888000A601A60227013E1734A13689046A3F144
:101898001F010A2903D82278063A042A25D9A3F178
:1018A8005E02532A07D82278A2F12E012B291ED9CD
:1018B800173A162A1DD9A3F13C020F2A03D8227819
:1018C8003C3A0F2A17D9A3F12102092A03D8227812
:1018D800193A072A11D9283B162B03D82378133B2A
:1018E8000C2B0CD9002131600AE0654908E06549F4
:1018F80006E0654904E0654902E0654900E065499C
:1019080033681BB14422644805F0F2FB594A0023AE
:1019180013600122C8F8002023708FE0504B1A682A
:101928001C46002A00F08C805B4B002868D0514987
:10193800D3F834800A688E4690450DD1996B0129F9
:101948000AD1454A5969126891421BD899698A4255
:1019580018D8C3F838C0AFE0474F1868397801285D
:1019680001F10101C9B23970DFF82CC10DD0E929A4
:1019780040F2A28008F1FF318A421ED0022822D00C
:101988001C2820D000233360C2E00B2940F290804D
:101998000A2AECD93448511CCCF834100168A2F159
:1019A8000B0E41EA0E210160DCF82C100A440132CA
:1019B800CCF830200A223A7022E0996B0029DDD158
:1019C800CEF8008078E0002ADCD12C490868B0F510
:1019D800E16F13D201209863022018605A632F4BDD
:1019E8000A601868204B18602D4B18681D4B18604A
:1019F8002C48036843F0010303605DE02A605BE064
:101A08001968254A0329144FDFF86CE040F09180EB
:101A180018480168102940F08C803B68053B072B6B
:101A280000F2A1809EF80030A3F13C0EBEF10F0F2A
:101A380073D8002323601123036001233B6037E040
:101A480090BB054A13680133136031E0101200207F
:101A5800000C014000120020A01100209C11002061
:101A6800881100200C120020F0110020081200201C
:101A780004120020901100208011002094110020F1
:101A880088C20008BCC1000800C20008CCC2000817
:101A980044C2000878C10008AC11002020060020CC
:101AA80024060020F811002001221A607E4B1A70CB
:101AB8003368002B00F0F5807C4B7D4A586B126828
:101AC800904240F0EE809A6B002A40F0EA80794913
:101AD800794AD1F800901468784FA14554D1784CD0
:101AE8002468B4F5966F4FD23C6801343C601C689A
:101AF800012C4BD13B68013B012B47D8704B002090
:101B080018602B68002B40F0A0800023336013601E
:101B18006C4A1360644A1370C3E00F3B0A20D16219
:101B28000F2B4FF0200110601163516315D801206D
:101B380014E03A6858685D49904219D95B695B4975
:101B48009A4210D38B699A420DD89EF80030CA6920
:101B5800934208D30A6A934205D80020FFF784FD10
:101B68000023236069E7002333608EF8003064E7C0
:101B780088688242E2D89EF800C0C8688445DDD3F0
:101B880009698C45DAD8D2E70024AFE70123022C93
:101B9800DFF854812B604C4FDFF850C1DFF850E17B
:101BA8001BD14A4C002871D1DFF814A1DAF80030B3
:101BB800B3F5E16F0ED22368DFF818813B60D8F8DF
:101BC8000030C2F8009043F00103C8F80030CAF8AA
:101BD80000005BE0C8F8000058E0052C5ED13C4BE3
:101BE8001C7893F801A004F00F0093F8029080EAA3
:101BF80014100AF00F04604080EA1A1009F00F046C
:101C0800A04218BF0020DC7818BFC8F80000187977
:101C180089EA040493F8058084EA000398451CBF08
:101C280000232B602B482C4B04681B68234303605C
:101C38000523CCF800303B68CEF800301068274BFD
:101C48001860274B1868274B5AE714680B68DFF8A9
:101C580078C0A3421A48DFF874E00FD1DEF80070AC
:101C6800DCF800309F4209D140F6C9070368BB423F
:101C78009FBF184F3B6843F001033B60DCF800301E
:101C88000C60CEF80030002303603EE70223CCF856
:101C980000303B68CEF800302360CFE7CCF8004036
:101CA800C9E72868BDE8F08780110020AC11002042
:101CB80090110020240600200C120020F4110020AE
:101CC80094110020A0110020F0110020200600200F
:101CD800A4110020F8110020081200208C11002007
:101CE800041200209811002010120020FC1100207E
:101CF80084110020C3688268033323F00303194466
:101D0800914298BF4268C3609ABFC160D018002052
:101D180070470246084619B10B6811461B681847F8
:101D280070470000054A136813F0010304D1044901
:101D38000B604B600123136001487047201200209C
:101D480024120020054A136813F0010304D1044942
:101D58000B604B6001231360014870471412002088
:101D6800181200200FB437B50C4C06AB20680C4D88
:101D780053F8042BC0F500712844019305F0D6FBF5
:101D88002368C3F50072904203DA0028C4BF1B1809
:101D9800236003B0BDE8304004B070472C14002025
:101DA8002C120020036893F900200D2A09D003DCC7
:101DB800093A012A2AD804E0202A02D02F2A02D080
:101DC8007047013320E093F901202A2A02D02F2AF4
:101DD80012D070470133036003685A1C026093F9FC
:101DE80001209AB12A2AF7D193F902202F2AF3D198
:101DF800033309E00A2BD5D003685A1C026093F913
:101E08000130002BF6D101E00360CBE7704738B50D
:101E180004460D46FFF7C6FF236893F90020AA423F
:101E280003BF013301202360002038BD70B504468C
:101E380085680430FFF7B6FF636893F90020272A06
:101E480014D0222A12D047F6ED70D3B223F0200125
:101E5800413919292BD8636801336360A368591C79
:101E6800A1601A70636893F90020EEE7013363609C
:101E7800616891F9003013B3481C934260601ED02A
:101E88005C2B0FD191F90130104890F9006036B100
:101E9800B34202D190F9013001E00230F5E773B1A5
:101EA80002316160A168481CA0600B70E0E72B3B21
:101EB800DBB20E2B03D820FA03F3DB07CBD4A368DD
:101EC80028465A1CA26000221A7070BD20C3000860
:101ED80038B50D46446834B1A168284605F0E2F9E2
:101EE80008B12468F7E7204638BD000038B5FFF789
:101EF800EFFF044668B1057C012D05D1816919B150
:101F0800054805F0CFF930B1013D012D02D8A0698F
:101F180038BD38BD002038BD2BC300082DE9F0437B
:101F2800046885B0804621460820FFF7F2FE0028A5
:101F38003FD000230460436008F1040904465B2194
:101F48004846FFF764FF78B35D214846FFF75FFF17
:101F580068BB06466F46394640468DF8006000F07B
:101F68002EF808B321681820FFF7D3FE08B10660E1
:101F7800067263682BB11A680AB11346FBE718604A
:101F880000E0606080B100F1080597E80F0085E87F
:101F98000F005D214846FFF73AFF40B92C2148461B
:101FA800FFF735FF0028D6D1FFF7BCFE04E0204636
:101FB80002E0FFF7B7FEBFE705B0BDE8F08370B5F4
:101FC800047B05460E46002C37D0013C04730430D0
:101FD800FFF7E8FE6B6893F900405B2C02D07B2C7E
:101FE80009D013E02846FFF799FF03680BB90024CE
:101FF80020E0062306E0284600F021F80368002BBD
:10200800F5D007233370B060012413E0272C04D0E7
:10201800A4F122035C425C4100E001242846FFF75A
:1020280005FF0028E3D014B10223337001E0012436
:102038003470B0602B7B01332B73204670BD2DE9C3
:10204800FF470468804621460820FFF762FE002803
:1020580054D000230460436008F1040604467B2141
:102068003046FFF7D4FE002843D07D213046FFF7E5
:10207800CEFE002840D181466F464046FFF7D6FE87
:102088000546B0B33A213046FFF7C1FE88B339465A
:1020980040468DF80090FFF792FF50B3294620463E
:1020A800FFF716FF824698B921682020FFF731FE16
:1020B80018B1C0F800A080F810A063682BB11A68A6
:1020C8000AB11346FBE7186000E0606088B18560DC
:1020D80000F1100597E80F0085E80F007D213046D4
:1020E800FFF795FE40B92C213046FFF790FE0028F7
:1020F800C3D1FFF727FE04E0204602E0FFF722FEE7
:10210800AAE704B0BDE8F087394970B50024A042B9
:1021180018BF0146ADF5267D26AA22AB2392354A83
:102128004FF4007502930490322302A8229203917F
:102138008DF8143024952594FFF781FF06462E4B21
:102148002A4621462D481C6005F048F833682C487B
:1021580033B9FFF707FE2B48FFF704FE2A483AE099
:10216800FFF700FE29493046FFF7C0FE284C01461C
:102178002848FFF7F7FDE078A278617800F5FA6063
:1021880000F0ECFE214905463046FFF7AFFE014658
:10219800214805F087F80646E0B9204920488B78A1
:1021A8004A780978FFF7DEFD1E48A3786278E1785F
:1021B8000C2404FB050501F5FA611B480095FFF79F
:1021C800D1FD3146802202A805F008F802A9174877
:1021D800FFF7C8FD1648FFF7C5FD1648FFF7C2FD13
:1021E800064801F0CDFD01200DF5267D70BD00BF2C
:1021F8002AC3000818C300082C1400202C12002041
:1022080030C3000832C3000842C3000855C30008A1
:10221800361E002059C3000865C300083A1E002076
:102228006CC300082806002083C300089FC3000869
:10223800AEC3000853C30008082391FBF3F300EB77
:1022480083100A4B10B50B40002BB8BF03F1FF33C6
:10225800074CB8BF63F007034FF00102B8BF013362
:1022680002FA03F3225C1343235410BD07000080D5
:1022780030140020082391FBF3F300EB83100B4B81
:1022880010B50B40002BB8BF03F1FF33084CB8BFA3
:1022980063F007034FF00102B8BF013302FA03F3FA
:1022A800225C22EA0303235410BD00BF070000800C
:1022B800301400200AB1FFF7BFBFFFF7DBBF0CB433
:1022C800F0B505460E4697B01CAC54F8047B502276
:1022D800002102A804F082FF23463A464F2102A8B3
:1022E800019405F023F902AA3146284601F0DAF9EB
:1022F80017B0BDE8F04002B0704700002DE9F84380
:102308008846044602EB82020F4B161A471D1E44EC
:102318003F2C04D90134BC42FAD1BDE8F88316F940
:102328000490002508EB05011F2909D849FA05F38F
:10233800DB07204602D5FFF77FFF01E0FFF79AFF92
:102348000135082DEED1E5E70C0100202DE9F0411B
:1023580006468846154600240627284605F080F8D4
:10236800844207DA2A5707FB04604146FFF7C6FF95
:102378000134F2E7BDE8F0810CB4F0B505460E462D
:1023880097B01CAC54F8047B5022002102A804F03A
:1023980025FF23463A464F2102A8019405F0C6F8C6
:1023A80002AA31462846FFF7D1FF17B0BDE8F04032
:1023B80002B070472DE9F74F8046914601910025FC
:1023C80000F1180A4FF0180B4446C8EB09060BFB3E
:1023D8000566019B5F1932573946302A204602D1DB
:1023E800FFF72AFF01E0FFF745FF01345445F2D11A
:1023F8000135182DE8D103B0BDE8F08F184A194906
:10240800F8B500239C5C585C164E844204D1013315
:10241800B3F5807FF6D1F8BD002404218020FFF7B2
:10242800E1F812218020FFF7DDF864F04F01C9B20E
:102438008020FFF7D7F806EB84170025795DC020C8
:102448000135FFF7CFF8402DF8D10134042CE4D141
:102458004FF480720349024804F04AFEF8BD00BFF9
:10246800301500203014002010B50446812180204A
:10247800FFF7B8F804F03F018020BDE81040FFF7EF
:10248800B1B808B5FFF770F8A2218020FFF7AAF8C5
:10249800A1218020FFF7A6F8C8218020FFF7A2F825
:1024A80040218020FFF79EF82C218020FFF79AF822
:1024B8002E218020FFF796F82F218020FFF792F831
:1024C80026218020FFF78EF8AF218020FFF78AF8B9
:1024D800A4218020FFF786F881218020FFF782F869
:1024E80025218020FFF77EF800218020FFF77AF869
:1024F80010218020FFF776F8BDE80840B021802041
:10250800FFF770B808B501210748FEF776FD48B116
:1025180000F094FBFFF770F9BDE80840012102487C
:10252800FEF776BD08BD00BF0004004070B500246A
:10253800154B651C186804F0A9F8144904F0B2F9A1
:1025480002F038FB124904F0ADF90646284604F0BB
:10255800A1F80146304604F0F1F84FF06A5104F052
:10256800EDF801464FF0804002F098FB4FF07E51A5
:1025780003F0DAFF04F0BEFA064BB5F5806F23F8D6
:1025880014002C46D4D170BD0801002000007A4602
:102598001872313F3616002008B580210348FEF72F
:1025A80093FAB0FA80F0400908BD00BF000C014062
:1025B8002DE9F04FA7B0FEF769FF00F03FFD00F0EE
:1025C80065FB00F0FFFCFEF72BFFAC4800F030FC89
:1025D800AB4800F05BFC01F059FC0421A948FEF768
:1025E80079FA0421A848FEF777FAC820FEF734FFE5
:1025F8000421A548FEF76EFAC820FEF72DFFFFF765
:1026080040FFFFF7FBFE20234022A049A04800F02E
:1026180061FD002000F0DAFD002000F085FE6FF07B
:102628007F4000F07BFE01F037FBFFF7E7FEFFF786
:102638007DFF1020FEF7E6F90FFA80F91420FEF767
:10264800E1F907B2002F03DB3F2FA8BF3F2700E0C7
:102658000027B9F5806F05DAB9F5167FB8BF4FF4D2
:10266800167901E040F2FF398A4B002533F819202A
:10267800894B2C46A8462E469A86F8B2FFF7F4FEF8
:10268800864B03951B6806950793854B4FF00C0AFC
:102698001B6805950B93834B08951B680C93824B1D
:1026A8001B680D93814B1B680E93814B1B680F931E
:1026B800804B1B6810930123049301F0DFFB08B1E2
:1026C80001F096FB7C48FFF737F8744A08991368BD
:1026D8005B1AB3F5FA7F0FD913680893F31E012B21
:1026E80005D9664800F0A4FB654800F0CFFB059BC0
:1026F8002BB1013B059302E04FF0000B01E04FF0D6
:10270800010BFFF749FF002800F04E82069B002BC3
:102718005CD1062E5AD8DFE806F004333A40470B5E
:102728004D00039B002B51D15C4B1B6803934DE07C
:10273800052D4BD8DFE805F044030A11171E0024C5
:102748004FF0010B4FF0020804263FE000244FF041
:10275800010B4FF00308062638E04FF0010B4FF04D
:1027680005085E4632E000244FF0010B4FF00408E4
:1027780002262BE04FF000084FF0010B464625E0FB
:102788001FFA89F11020FEF72FF9032513E0B9B2DB
:102798001420FEF729F904250DE0384800F033FB32
:1027A80000254FF0010809E03548012500F05EFBDF
:1027B800A84603E002254FF0010BD846052605E0A0
:1027C80000244FF0010B4FF002080326FA20FEF711
:1027D80043FE039B002B00F0E881FFF7DDFE2F4B43
:1027E800002840F015821A680399521AB2F5FA7F48
:1027F80080F00E82049AD2F101020492264A04D192
:10280800BDF810309386049BD0E11B680793214BD9
:1028180033F819309386BAF1000F02D1CDF80CA025
:1028280011E003901D4B1A68079BD21A234B03FB38
:102838000AF39A4200F2AA81049B002B02BF984631
:102848001E464FF0010B00F03FFA404240B200280C
:1028580000F0A280731E052B00F29E80DFE803F0D3
:1028680042035B698B780444052C29DD01373FB2AC
:10287800402F4FF000042CD13F272AE03A1E0020B9
:10288800361E0020000C014000080140BD2200084F
:10289800401E002036160020000400407C11002055
:1028A800180600201C0600200C0600201406002034
:1028B80008060020100600203016002080EE3600A2
:1028C800621D06DA013F3FB27B1C4FF0000400D1C5
:1028D800274681218020FEF785FEF9B28020FEF789
:1028E80081FE59E081440FFA89F9B9F5FA7FB24BB4
:1028F80005DBB9F5806F07DAB9F5FA7F06D1002252
:102908009A864FF4FA7947E040F2FF39AB4A32F839
:1029180019209A8640E00444022C01DD012104E0DC
:10292800A01C80F23C814FF0FF31A54800F0BCFAB2
:102938000CE00444032C01DD012104E0E11C80F2D9
:102948002E814FF0FF319F4800F030FA002426E135
:102958000444052C02DD0AF1010A03E0621D02DAD3
:102968000AF1FF3A0024BAF1180FD4BF2AEAEA7A2A
:102978004FF0180A14E00444052C04DD0135052D38
:10298800A8BF05250EE1631D0ADA15F1FF3580F0B1
:10299800098100252C4603E0BBF1000F3FF48DAE02
:1029A800B8F1050F00F2EF80DFE808F003C93F8BAC
:1029B800A7B6002000F00AFC834B186800F0BEFBA5
:1029C8007F4B824A1B7802210A2B34BF4FF0060B3B
:1029D8004FF0000B5846FFF772FC794BCBF12500FE
:1029E800DFF8E0B15B787A4A0221FFF768FC9BF8D0
:1029F80003009BF802209BF8011000F5FA6000F034
:102A0800ADFA54220990734911A804F071FB9BF8A0
:102A18000220099B11A900920C2202FB03130F202C
:102A28006D4A1221FFF7A8FCADE0002000F0CEFBB4
:102A3800032E1CD1694A0021102000F033FE624B9E
:102A4800186800F07BFB5E4B604A1B780A210A2B52
:102A580034BF4FF0060B4FF0000B5846FFF78CFCC5
:102A6800574B5B4A5B780A21CBF125003CE0042EEA
:102A780040F08980DFF84CB1594A0021102000F05D
:102A880011FE9BF80230524A0A210020FFF774FC1D
:102A9800544A0A210C2000F005FE9BF801304C4AEC
:102AA8000A211220FFF768FC4E4A0A211E2000F076
:102AB800F9FD9BF803304C4A03F5FA630A212420F8
:102AC80012E0002000F082FB1020484A002100F0AC
:102AD800E9FD3D4B186800F031FBBAF1000F06D054
:102AE8005346434A0B210F20FFF746FC4BE0414A6F
:102AF8000B210F20FFF740FC45E0002000F066FBAB
:102B080000213D4A084600F0CDFD2F4B186800F023
:102B180015FB3B46394AE5E7002000F057FB00214A
:102B28000846374AFFF712FC274B186800F006FBE7
:102B38004B46344A0B210020FFF7C1FB23E000205D
:102B480000F044FB26AB03EB850353F86C2C0421FF
:102B58002820FFF72FFC052D15D8DFE805F0030521
:102B680007090B0F1D4A0AE01D4A08E01F4A02E048
:102B7800234A00E0244A0C21002002E0234A0C21C9
:102B88000420FFF7E3FBFFF739FC96E50A4A002328
:102B980093864FF0010B049398461E4653E6042390
:102BA8000593FDE60024FBE6069000230393BAF1A3
:102BB800000F3FF441AE35E6000400403616002011
:102BC8003A1E0020361E00207C06002010C4000893
:102BD80017C40008BCC3000814C400081CC40008BB
:102BE80021C4000826C4000828C400082DC4000811
:102BF80033C4000838C400083CC4000845C40008B1
:102C080049C4000850C4000854C400085AC4000845
:102C18001B68039A9B1AB3F5FA6FC8D9002EC4D162
:102C2800B8F1000F08D10123CDF80C804446069373
:102C38009B4698460526BAE70396B8E710B54021A3
:102C48000F48FDF741FF202101280D480CBF032440
:102C58000024FDF739FF0B4B0128197808BF84F0D1
:102C68000104091BC9B2CA0709D507481C700378B3
:102C780001F002015AB2531E0B445BB2037010BD3F
:102C8800000C0140B01E0020B11E002010B54021EC
:102C98000A48FDF719FF2021012808480CBF032422
:102CA8000024FDF711FF064B012808BF84F001043A
:102CB8001C70044B00221A7010BD00BF000C0140AC
:102CC800B01E0020B11E002072B6034B00221878F7
:102CD8001A7040B262B67047B11E002010B50446A3
:102CE80001214FF0C050FEF763F80120FDF7E6FF21
:102CF8000CB1FDF76FFE0120FDF7ECFF4120FEF758
:102D080069F80028FAD04FF48070FDF7F3FF01202E
:102D1800FDF7F8FFFEF7B6F8FEF7ACF8FEF7AAF8ED
:102D280047F6FF70FEF796F8BDE81040FEF7A2B828
:102D3800830711D16422B0FBF2F302FB13039BB2A9
:102D480063B94FF4C872B0FBF2F302FB130080B210
:102D5800B0FA80F0400970470020704701207047A2
:102D680030B5421E0B2A85B003460D4618D80E4CC6
:102D780001AA20686168022B03C2A06810600AD10A
:102D8800A8B29DF80510FFF7D3FF00280CBF08462E
:102D9800481CC0B205E004AA134413F80D0C00E067
:102DA800002005B030BD00BF5FC400080029F8B599
:102DB800074627D0C4788678457804F5FA640EDD8E
:102DC800013621462846FFF7CBFF864216DD01353E
:102DD8000C2DA6EB0006F4DD01340125F1E7013ED8
:102DE800002E0BDC013D002DDCBF04F1FF340C2567
:102DF80021462846FFF7B4FF0644F1E73034BE7099
:102E08007D70FC70F8BD10B50446FEF733F86078A5
:102E18003C23434322784FF4616000FB0233A078DF
:102E28001844FEF709F8BDE81040FEF723B8000083
:102E380038B50446FEF71EF8FDF7F4FF0546FEF721
:102E480019F84FF46163B5FBF3F307482370DBB25D
:102E580000FB03503C23B0FBF3F36FF03B0203FB92
:102E680002006370A07038BDF0F1FFFF10B5044692
:102E780041788378082003EB012189B2FDF7B4FD7E
:102E8800E1780C20BDE81040FDF7AEBD38B5054629
:102E98000820FDF7B7FD04460C20FDF7B3FDAC7024
:102EA800240A6C70E87038BD002910B518D0417834
:102EB80003780ADD4A1C18213B2A0DDD013393FBF8
:102EC800F1F43C3A01FB1433F6E74A1E21B9013B01
:102ED8005A1C08BF17233B220370002342708370DB
:102EE80010BD0000F8B50C460546FDF7C3FF2046A7
:102EF800FFF7CCFFFDF7BEFF2846FFF799FF164EF8
:102F08000127FDF78FFFB04224D9FDF7B3FFFDF786
:102F180089FFA0F5A830A0F5C070FDF78DFFFDF77B
:102F2800A9FF2846FFF784FFA3780C2B0CD841F2A1
:102F3800AA5107FA03F2114021B912F4256F01D101
:102F4800520701D50133A370FDF794FF2046FFF720
:102F58008DFFD6E7F8BD00BF7F51010030B50C23C7
:102F6800C1F10E046FF00B0594FBF5F594FBF3F437
:102F780003FB04139924033B63430521023393FBAA
:102F8800F1F31A4440F26D1300F5965028440421D9
:102F980090FBF1F103FB00230B446FF0630190FBFE
:102FA800F1F14FF4C87290FBF2F00B440344A3F51F
:102FB800FA432D3B072093FBF0F0C0EBC000181A32
:102FC80030BD000010B50420FDF71CFD45F65A245D
:102FD800A04222D00120FFF781FE16480D2303707E
:102FE8002523437000238370FFF70DFF12480A233F
:102FF800837043701123C370FFF738FF40F2FF312D
:103008001020FDF7F1FC28211420FDF7EDFC2146E6
:10301800BDE810400420FDF7E7BC0020FFF75EFE86
:10302800FDF730FF04490348FFF75CFFBDE8104097
:10303800FDF720BFB21E0020B51E002070B501218B
:1030480088B00220FDF7B4FE40F6B833204D0024C6
:1030580001A92846ADF80830ADF80440ADF806409F
:10306800ADF80A408DF80C40FDF71AFF28460121FB
:10307800FDF7A4FF012211462846FDF7B4FF1022F0
:103088000DEB0200214604F0A9F87023ADF81030CA
:10309800C8230126ADF8163004A902232846ADF846
:1030A8001830ADF81260FDF745FF08212846FDF7F6
:1030B8009CFF1D2368468DF800308DF801408DF87F
:1030C80002608DF80360FDF74FFC08B070BD00BFCB
:1030D80000040040C380053B01601BB204218280CC
:1030E80001844184C384C38312490023053A12B280
:1030F80003630387C386438783870364C3640361C9
:1031080043618361836580F85C30036680F86430CE
:10311800836680F86C30084B8284828301650122C3
:103128006FF07F4180F8442080F845208164186062
:1031380010467047EF8B5E00C41E002030B5054670
:10314800034B1C680FCD30340FC42B68236030BD8F
:10315800C41E002082422DE9F3479846B8BF0346B3
:1031680017460646BCBF1F4616468845B8BF0B46DD
:10317800154A0C46BCBF444698461368DDF828A09B
:1031880093F86410914611F0020F0BD0CDF800A00F
:103198001D6E3A46434621463046A84710B910E00E
:1031A800013424B2A0450CDB3546AF42F8DBD9F830
:1031B800003028461B6852462146013598472DB2F3
:1031C800F3E702B0BDE8F087C41E0020084B07B53E
:1031D8001A680021D3889288013B013A00901BB2FB
:1031E80012B20846FFF7B6FF03B05DF804FB00BF54
:1031F800C41E002082422DE9F04F1F46B8BF034687
:1032080016460446BCBF1E4614468F42B8BF0B463E
:10321800414A0D46BCBF3D461F46136885B093F82A
:103228005C10924611F0020F2AD1361B32B27B1B7A
:103238001BB282EAE278002AA8EBE27883EAE37913
:10324800CCBF01224FF0FF32002BA9EBE379CCBFB2
:1032580001234FF0FF330393DAF8003002920FFA9C
:1032680088F70FFA89F61B680E9A29462046984770
:10327800B74211DA77104FF0000ADFF89CB043E04C
:103288000E9A29460092D3F8588032463B4620468B
:10329800C0470028C9D13BE0DFF87CB07E104FF072
:1032A800000A0FFA8AF39F4232DD4E44B3B21EB2CF
:1032B800B74205DCC8EB0306039B36B21D442DB2AA
:1032C800029B0E9A1C44DBF8003024B21B68294686
:1032D800204698470AF1010AE3E74744BBB21FB208
:1032E800BE4205DCC9EB0307029B3FB21C4424B273
:1032F800039B0E9A1D44DBF800302DB21B6829464B
:10330800204698470AF1010A0FFA8AF39E42E4DC44
:1033180005B0BDE8F08F00BFC41E0020014B1B683C
:1033280098647047C41E0020014B1B68D86470471E
:10333800C41E00202DE9F04F5FFA80F989B0B9F179
:10334800D60F8B4600931146139C1FD00BD8B9F1AA
:10335800B50F24D0B9F1C40F1ED0B9F1B00F08BF12
:103368004FF0F80920E0B9F1E40F12D005D8B9F10F
:10337800DC0F08BF4FF09A0916E0B9F1F60F11D02B
:10338800B9F1FC0F08BF4FF081090DE04FF0990922
:103398000AE04FF0840907E04FF08E0904E04FF08F
:1033A800E60901E04FF0940963891FFA89F29A420D
:1033B800C0F06481A0899042C0F06081B4F9060031
:1033C80085B2002D00F05A816A0722694FEAD508B4
:1033D80018BF08F1010812B1C3EB0905555DA94FE3
:1033E8008AB23E68029296F86C2002F0020202F05D
:1033F800FF0E002A00F096802389029A013B1A44A6
:1034080013460BF1FF322A441BB2B66E12B258466D
:10341800B04723798246002B34D19B466789B4F99B
:103428000820C7EB0907574308FB07F7B4F908203A
:103438001FFA8BF3934280F221813A462E46D31B22
:103448009BB298451AD9531C019323689A5CA6F13C
:1034580008031FFA83F96EB1D3074CBF009812987E
:10346800013E0292B6B2D047029A4E454FEA520246
:10347800F1D100E0B146019A4E46E0E747440BF12E
:10348800010BD3E7012B40F0F9806689B4F90830C5
:10349800C6EB090903FB09F9B4F906609DF848B0C1
:1034A80006FB09F69DF800900027B4F90820BBB286
:1034B800934280F2E3803146009B03F47F488B1BE4
:1034C8009BB29D4229D923684A1C595C0192C1F5D7
:1034D800807C0CFB0BF301FB0933C3F3072E129B13
:1034E800009A03F47F430CFB03F301FB083302F457
:1034F8007F001B0A129A03F47F434EEA030302F487
:103508007F0E0CFB0EFE01FB00E0000A00F47F00BA
:103518001843D047019A1146D1E7B4F9063001376C
:103528001E44C2E72279002A4AD1B4F90810C3EB35
:10353800090901FB09F908FB09F90192BDF80430F2
:10354800B4F90820934280F299804A4602991FFAFA
:103558008BF60B4404950793C9EB02039BB298457D
:1035680029D9531C0693236806F1080A9B5C1FFAA5
:103578008AFA0393BDF91C300593049BBBB1039BE6
:1035880030B213F0010F3B6818BF009A1B6808BFE0
:10359800129A05999847039B01365B080393049B8D
:1035A800B6B2013B9BB2B2450493E6D100E0B24605
:1035B800069A5646D0E7019BC14401330193BDE703
:1035C800012A5BD1F046B4F90860C3EB090906FB90
:1035D80009F900FB09F61FFA8BF30393B4F90820E5
:1035E8001FFA88F3934249DAB146029A13441BB290
:1035F80001931FFA89FB1FFA86FCCCEB0B039BB2E5
:103608009D4235D923689DF848E013F809A09DF834
:103618000030CAF5807000FB0EFE0AFB03E3C3F31B
:103628000721009B09F1010903F47F4E129B03F463
:103638007F4242430AFB0E23009A1B0A03F47F438E
:103648000B4302F47F01129A02F47F0250430AFBF3
:1036580001020399120ACCEB0100396802F47F02D7
:103668005844D1F800A01A43019900B2D047C0E7E6
:10367800B4F9063008F101081E44AFE709B0BDE807
:10368800F08F00BFC41E002013B5054C24683034E9
:103698000194049C0094FFF74DFE02B010BD00BFDA
:1036A800C41E00202DE9F347DFF8788007460D4651
:1036B8008246C146561E16F9010F78B3D8F8003075
:1036C8005A8F9042F7DB998F8842F4DC0A28B3F9C5
:1036D800041001D18A46EEE71C6C14B1821AA45C6E
:1036E80001E093F836400AEB0402914206DCBA4640
:1036F80093F945101A8F0A4415442DB2DA6C5146D5
:1037080000929B6C2A46FFF7BFFFD9F8003093F967
:1037180044301C4454440FFA84FACCE702B0BDE8A4
:10372800F08700BFC41E00202DE9F04F0546406811
:1037380089B003682968002B00F08F80002900F009
:103748008C80B5F90A40B5F90E20B0F908A0131B12
:103758005345C0F282804F1E012317F9016F26B12D
:103768000A2E04BF01339BB2F7E7B5F91C602F7E20
:10377800049617F030060BD00132121B0AFB1322F5
:10378800049E013B03FB16231BB2002B01DA64E005
:103798003346FE0648BF5B10B5F91A60234403960A
:1037A8001EB2C388B5F90C2005932B890693531CC8
:1037B800069A9B1A07938946002411F9013B4BB9D5
:1037C800BDF80CB0079BCBEB04041C1B24B2002CE7
:1037D80015DA42E00A2BF3D0686842899342ECDBA1
:1037E800B0F80CE07345E8DC006910B19B1AC35CC3
:1037F80000E0059B039A14441C44A4B2DDE7FA07D1
:1038080003D4BB0702D5641000E00024069B19F915
:10381800018B1C44B8F10A0F24B218D0B8F1000F7C
:103828001BD06B68324601936B6921460093404672
:103838002B69FFF77FFD6B681A692AB15B89C3EBB7
:10384800080812F8083000E0059B5C44DFE7049B99
:10385800494653441E4436B2ADE709B0BDE8F08F7F
:10386800F0B52D4B07781B680024B3F90A50B3F95B
:103878000C6093F808E0A3B29F424BD9D0F804C07B
:1038880062010CEB02011CF802204B7802F04B029B
:103898000A2A3CD103F04002BEF1000F25D0B5F151
:1038A800FF3F22D01AB903F0670343F00503B1F9CB
:1038B80008C003F0DF02AC4514DCB1F90CC0AC451C
:1038C80010DBB1F90AC0B4450CDCB1F90EC0B4453F
:1038D80008DB13F0400F0ABF03F0DB0342F02002BD
:1038E80043F0220242F0400311E082B19A0606D565
:1038F8009A0748BF43F0800343F0080301E043F010
:1039080010035A0648BF43F0010303F0B9034B7094
:103918000134B0E7F0BD00BFC41E00202DE9F84314
:10392800064690F800800025ABB298451CD972680D
:103938006B01D75CD41807F00303022B12D1B90628
:1039480094F8019003D563682146304698473A07B2
:1039580008D53B0606D519F0410F03D06368214608
:10396800304698470135DFE7BDE8F8832DE9F7438E
:1039780000240646A146134D02236C602B7007787D
:103988000DF10408A3B29F4219D9716862018B181E
:1039980001938A5C02F00302022A0ED19A7E62B178
:1039A800197E5B7EC5F80480AB706970336CEA7071
:1039B80004489847019B83F81A900134E2E703B062
:1039C800BDE8F083BC1E00202DE9F04F0F46994654
:1039D8000546904687B0109C93B2029303F1FF3AD4
:1039E80023680FFA8AFA009352460B46FFF702FC47
:1039F800BBB203935E1C1FFA89F3049303F1FF3BE8
:103A0800636836B20FFA8BFB00932A465B46314651
:103A18002846FFF7EFFBA3684246009349464B460A
:103A28002846FFF7E7FBE3684246009339465B46C2
:103A38004046FFF7DFFBABB205935F1C029B3FB22A
:103A4800A3F1020823690FFA88F800934246334627
:103A580031463846FFF7CEFB039B3A469D1C049B34
:103A68002DB2A3F1020963690FFA89F90093294677
:103A78004B463846FFF7BEFBA369524600935946AA
:103A88005B463846FFF7B6FBE3695246009331467A
:103A98004B465046FFF7AEFB059B29469E1C029BF2
:103AA80036B2DA1E236A3046009312B22B46FFF76D
:103AB800A1FB049B3246DF1E039B3FB2D91C636AFD
:103AC8003046009309B23B46FFF794FBA36A42468F
:103AD800009349464B463046FFF78CFBE36A424663
:103AE800109329463B46404607B0BDE8F04FFFF724
:103AF80081BB00002DE9F04104468AB0002859D066
:103B0800037A9A0756D5037FB0F91450DB07B0F94A
:103B18001670B0F9186005D503350337033E2DB28A
:103B28003FB236B2264B1FFA87F81B6839465B69E5
:103B380028469C420BBF236BA36B079307930CBFCC
:103B4800E36A636B079A069394F83C300092013B52
:103B5800434432461BB2FFF7FDFA236A02A80293D8
:103B6800636AADF812700393EB1CADF8103094F84B
:103B78003C30ADF81460013B4344ADF8163094F87E
:103B88002A308DF8203094F92830ADF8223094F995
:103B98002930ADF82430FFF7C7FD94F83C30094AC6
:103BA80043441BB20092284632461946FFF722FBCF
:103BB800002001E04FF0FF300AB0BDE8F08100BFFF
:103BC800C41E0020A0A0A0002DE9F341037A0446FA
:103BD80023F020021907B0F91460B0F91650B0F9B3
:103BE8001870B0F91A80027244D5027FD20713D533
:103BF800580611D4264B3A46009329464346304688
:103C0800FFF7E2FE03360335033FA8F1030836B297
:103C18002DB23FB20FFA88F8237F99070FD52046B7
:103C2800FFF768FF237A5A0605D494F83C3001332D
:103C38001D442DB203E023F04003237224E02369DE
:103C48003A460093294643463046FFF783FA2578DB
:103C5800002293B29D4217D960685101435C03F07A
:103C68000306022E04D11E0744BF43F060034354E9
:103C78000132EEE7074B3A461B6831461B6D30466A
:103C880000934346FFF766FA02B0BDE8F08100BF33
:103C98006CC40008C41E002010B52A4C226892F893
:103CA80054305069D90744BF23F0010382F85430D7
:103CB800136983422ED06BB390615361F8B1027FD0
:103CC80092071CD5027A110719D5B0F91410B3F967
:103CD8001420914211D1B0F91810B3F9182091426B
:103CE8000BD1B0F91610B3F91620914205D1B0F9ED
:103CF8001A20B3F91A309A4201D0FFF7FBFE226866
:103D080051690B7A23F040030B725269137A43F01E
:103D18002803137223685C699CB1237A9A0602D53A
:103D28002046FFF751FF237A1B070AD52046FFF7E5
:103D380097FD2046FFF7F2FD2046BDE81040FFF74B
:103D480015BE10BDC41E00200B4BF0B51A680B4EF3
:103D580047180025C0EB020EB8420EEB000406D04F
:103D680010F8015BC4F3080435550125F4E70A444B
:103D780005B11A60F0BD00BFD01F0020D41F00207D
:103D880070B50446C0B04FF480720021684603F055
:103D980025FA204603F064FBFB28024625D8214675
:103DA800684603F0A5F9204603F05AFB0D220DF8EA
:103DB80000200DEB00030A225A7000229A70684610
:103DC80003F04EFB6C4605467DB13F2D2E4628BFBD
:103DD8003F26012000F0EEFD2028FAD12046F1B25E
:103DE800FCF7E4FA3444AD1BEEE740B070BD0000C8
:103DF8002DE9F0411B4FFCF7F3FA3E46DFF87880D7
:103E08003A68D8F800309A4229D21749174DC2F3B8
:103E180008028A562B680A2A1A701CD00D2A144CDC
:103E28000AD100221A702046FEF76EF910B911481F
:103E3800FFF7A6FF2C600EE001332B601B1BFE2B47
:103E480009DD4FF480720021204603F0C7F90948C4
:103E58002C60FFF795FF336801333360D0E7BDE886
:103E6800F08100BFCC1F0020D41F0020C81F0020F5
:103E7800C81E00209CC40008D01F0020024B1868F0
:103E8800431F5842584170474810002008B5FCF7B6
:103E98000BFAFCF737FAFCF740FA00F043FC024A49
:103EA800024B1A6008BD00BFC81E0020C81F0020B2
:103EB80010B5064C18B9236801221A8210BD044BAC
:103EC8001B681B68984720680A3010BDC022002074
:103ED800BC22002010B5064C18B9236801221A82AA
:103EE80010BD044B1B689B68984720680C3010BDB8
:103EF800C0220020BC22002010B5204A18B913683F
:103F080002221A8210BD1E481468002303802178FB
:103F1800024611F07F010DD1637A990644BF022150
:103F2800017013F0400F037814BF43F0010323F02E
:103F3800010314E0012920D002291DD1617901F083
:103F48000F039B0003F1804303F5B84311F0800F82
:103F58001B6806D003F03003102B07D10123137020
:103F680004E003F44053B3F5805FF6E7054B1B68A4
:103F78001B699847024810BD184610BDC022002092
:103F880090220020BC2200202DE9F843234FDFF8BF
:103F9800A0803C68238ABBB9267A042E14D1204815
:103FA8000278012A0BD11F4A11681F4A89B20A44B4
:103FB800520013603022A8F80020037029E0102373
:103FC800A8F80030072624E0A58AAB4294BF04264F
:103FD80002269D4228BF1D46A36928469847814668
:103FE800002000F0ADFD2A460146484600F070FC6E
:103FF8002946002000F044FD238A4FF440525B1B01
:104008002382638A1D443023A8F80030074B658259
:104018001A803B681E72BDE8F88300BFC0220020EA
:10402800D4210020505C004002300020C62200202D
:10403800C822002010B50A4B0A491B684978DA786B
:1040480091420AD3997841B99C8834B99A72064B3F
:104058001B685B689847204610BD022010BD00BF52
:10406800C0220020E0000020BC22002038B50E4A03
:104078000E4D12682B689269D978587990472B6849
:104088009A7A7AB170B91A7962B99C7854B9084B9E
:104098001B68DB6898472B6820465A79DA72DA7809
:1040A8001A7338BD022038BD98220020C022002093
:1040B800BC22002038B5314B1B68187810F07F00FF
:1040C80004D15A7A22F020025A7238BD022853D1FC
:1040D8005A88002A51D11A79002A4ED15979284D87
:1040E80021F08000840004F1804202F5B842126891
:1040F8002D7811F0800F14BF02F0300202F4405204
:10410800A84239D2002A37D09B7A002B34D004F148
:10411800804404F5B8440A0623680CD503F030033C
:10412800102B23D1C4B2204600F097FC3021204642
:1041380000F00EFC1AE003F44053B3F5805F15D18C
:1041480028B9104B93F82C1000F0A8FC01E000F0FF
:1041580072FC236823F4804323F070039BB283F43A
:10416800405343F4004343F080032360064B1B682D
:104178005B699847002038BD022038BDC022002066
:10418800E00000205C000020BC22002038B51F4B56
:104198001F4D18682D78417921F08004A30003F1A0
:1041A800804202F5B842126811F0800F14BF02F085
:1041B800300202F44052AC4225D244881CBB12B3F0
:1041C800827A02B303F1804303F5B8431A680906FB
:1041D8004BBF22F4E04222F4804222F0400222F057
:1041E80070024BBF92B292B282F0100282F48052F7
:1041F80042F4004242F080021A60064B1B689B6939
:104208009847002038BD022038BD00BFC0220020DA
:10421800E0000020BC22002008B5064B1A68537A3B
:1042280043F020035372044B1B68DB699847002056
:1042380008BD00BFC0220020BC220020054B10B5DD
:104248001C68628A18B98B889B1A238210BD08687B
:10425800104410BDC022002008B50B4B002093F875
:104268002C1000F01BFC094B1B68187A082806D193
:10427800074B4FF480521A80064B10221A80A0F187
:1042880009035842584108BD5C000020C0220020A4
:10429800C6220020C8220020F7B59F4D9F4E2F68E8
:1042A80032683B7A092B19D09D4B92B213445B00BC
:1042B8001C88640004F1804404F5C04423783B70F2
:1042C80063787B70A08800F05FFC788020892F6875
:1042D80000F05AFCB880A2892B68DA802B6801228A
:1042E8001A72DA885C78002A59D11A7812F07F029B
:1042F80038D1092C02D1FFF79DFE45E0052C10D1DD
:1043080093F90320002A01DA082345E09A78002A65
:10431800FAD19A88002AF7D19B7A002B00F01881ED
:10432800F2E7032C10D1DA78012A07D07D4B20461A
:104338001B685B69984703282AD12CE09B88002BCF
:10434800F4D1FFF769FF1FE0012CEFD1DA78012AD9
:10435800ECD19A88002AE9D15B7A9906E6D5724BA6
:104368001A600AE0012A04D10B2CDFD1FFF77EFE88
:104378000AE0022ADAD1012C02D1FFF79BFE03E002
:10438800032CD3D1FFF702FF002800F0E180CDE72E
:104398000028B9D1DCE009232A681372D4E0062C7E
:1043A80015D11A78520640F0E1809A785D4B012ABF
:1043B80002D11B68DB6973E0022A02D11B681B6A01
:1043C8006EE0032A40F0D2801B685B6A68E0002C2C
:1043D80041D15988002940F0C9805A6822F47F42A7
:1043E800B2F5003F40F0C2801A7812F07F0204D183
:1043F8009B88002B00F0B880B8E0012A0BD1494A0D
:104408005879126892699047002840F0AF80424B73
:104418001B689B7A1BE0022A40F0A8805A7943481F
:1044280002F00F018B0003F1804303F5B8431B68CA
:10443800007812F0800F14BF03F0300303F44053E8
:10444800814280F0938012F0700F40F08F80002B33
:1044580040F08A808AE0082C05D11B785B0640F082
:104468008580334B1EE00A2C40F080801A7802F0D9
:104478007F02012A7AD19A7A002A77D059880029AE
:1044880074D15A6822F47F42B2F5803F6ED1254A32
:104498005879126892699047002867D1254B01E046
:1044A800002B63D02A6800245482936120469847E1
:1044B80020464FF6FF712B681A8A8A4201D10922D9
:1044C80003E0022800D012B908221A723CE093F9DE
:1044D8000010002932DAD988124C019101988242E1
:1044E80002D9019A1A8210E08A420ED2216891F804
:1044F8002C00824201D2002105E092FBF0F100FB82
:10450800112212B901210C4A1170226892F82C204C
:104518009A82FFF739FD17E0C0220020505C004066
:104528000430002098220020D8210020E00000203C
:10453800B93E0008DD3E0008D421002003221A728B
:10454800104B4FF440521A80FFF786FE03B0F0BDBF
:1045580032680D4B92B213445B0000221A600B4B79
:1045680030221A80062317E7094B9BE7094B2A6874
:104578001B6850781B69984703289AD1064B1B681B
:104588009DE700BFC622002002300020C82200207C
:10459800013F000898220020C0220020F8B5334DC2
:1045A8002C68237A022B59D0042B57D0032B01D027
:1045B800052B4DD1A169268AA9B1A6B1A38A9E422D
:1045C80028BF1E4630468847238A07469B1B2382FE
:1045D800638A00203344638200F0C2FA32460146FF
:1045E800384600F087F9238A53B1214B00214FF454
:1045F800405208461A8000F043FA1E4B30221A80B7
:10460800A38A268AB3422B6801D8032201E016B197
:1046180005221A7219E006221A72174B1B689B684A
:1046280098472B6813491B7A082B05D1104B4FF478
:1046380080521A80102307E0104B1A68104B92B270
:1046480013445B001E6030230B802B681B7A06E046
:10465800072B03D1084B1B68DB68984708232A6897
:104668001372BDE8F840FFF7F7BD00BFC022002075
:10467800C6220020C822002098220020505C00405A
:104688000230002030B50D4B00221D78AA4210D20E
:1046980040F60F7402F1805303F5B8539B00196874
:1046A8000C4042F4004141F080012143196001327D
:1046B800ECE7034B40F08000186030BDE0000020BC
:1046C8004C5C004010B5134C23681A7A022A01D0BA
:1046D800042A04D1FFF758FC23681B7A13E0062A42
:1046E80010D15A78052A09D11A78520606D1D878F5
:1046F800FFF7C8FF084B1B681B6A9847074B1B68E6
:104708009B689847082322681372BDE81040FFF79A
:10471800A3BD00BFC0220020BC2200209822002098
:1047280070470000064B074A0749136002221A72B5
:10473800064B074A1360074A1B681160184700BFF9
:10474800A0220020C02200208C0000205C00002055
:1047580098220020BC2200202DE9F743544E002364
:10476800B046544FADF806303B68534A99B21B0423
:10477800118040F19980138803F00F033370002BE8
:1047880064D14E4C4E4D23684E499BB22B802B88EA
:10479800894603F030030B802B8803F440532B80A9
:1047A8004BF6BF732068034083F4005383F0200363
:1047B80043F4004343F080032360138813F0100F81
:1047C80007D148F60F73226813402360FFF77AFF7A
:1047D8001AE023689BB2ADF80630BDF806301A051A
:1047E80007D540F68F73226813402360FFF754FD06
:1047F8000AE0BDF806301B04B6D540F68F73226870
:1048080013402360FFF7CAFE4BF6BF7322681340BC
:104818002A88D6042A8848BF83F480539504B9F8B7
:10482800002048BF83F40053D406B9F8002048BFDD
:1048380083F01003900648BF83F0200343F400433D
:1048480043F080031D4A9BB213602DE09A0002F1E9
:10485800804202F5B842116889B2ADF80610BDF879
:104868000610090409D540F68F711068013B014014
:104878001160154A52F823309847BDF806301A06D9
:104888007FF572AF48F60F7198F80020930003F196
:10489800804303F5B8431868013A014019600B4B8F
:1048A80053F8223098475FE703B0BDE8F08300BFB4
:1048B8009C220020445C004064220020005C0040F0
:1048C800C6220020C8220020380000201C0000203A
:1048D80010B501F10051013201F540515210490063
:1048E80000239A4205D030F8024B21F823400133C7
:1048F800F7E710BD10B501F10051013201F5405143
:104908005210490000239A4205D051F8234020F85C
:1049180013400133F7E710BD014B1860704700BF23
:10492800445C00404FF6F873014A03401360704737
:10493800505C0040800000F1804000F5B8400368FA
:1049480023F4EC4323F07003194389B201607047E4
:10495800800000F1804000F5B8400368CA0623F4DF
:10496800E04323F040039BB248BF83F010038A065C
:1049780048BF83F0200343F4004343F080030360FF
:104988007047800000F1804000F5B8400368CA0411
:1049980023F4804323F070039BB248BF83F4805311
:1049A8008A0448BF83F4005343F4004343F0800370
:1049B80003607047800000F1804000F5B84000684F
:1049C80000F030007047800000F1804000F5B840EA
:1049D800036823F4E04323F040039BB283F03003E1
:1049E80043F4004343F0800303607047800000F104
:1049F800804000F5B840036823F4804323F0700337
:104A08009BB283F4405343F4004343F080030360B4
:104A18007047800000F1804000F5B840036823F437
:104A2800F8731B051B0D43F4004343F08003036038
:104A38007047FFF7EEBF800000F1804000F5B840F6
:104A480003685B0408D540F60F730268134043F40B
:104A5800404343F0800303607047800000F18040CA
:104A680000F5B84003685B0608D540F60F73026886
:104A7800134043F4004343F0C00303607047000051
:104A8800044B1B689BB203EBC000034B03445B0061
:104A980019607047505C0040023000200D4B3E29E1
:104AA8001B689BB203EBC0000B4B03444FEA430265
:104AB80009D94B09C80604BF03F1FF339BB29B0217
:104AC80043F4004304E04B08C90748BF01339B0285
:104AD80013607047505C004006300020064B4908C0
:104AE8001B6849009BB203EBC00000F1005000F5C1
:104AF8004050400001607047505C0040FFF7EEBF37
:104B0800054B49081B6849009BB203EBC000034BE7
:104B180003445B0019607047505C0040043000207B
:104B2800FFF7EEBF054B1B689BB203EBC00000F11B
:104B3800005000F54050400000887047505C00402D
:104B4800FFF7F0BF044B1B689BB203EBC000034B9D
:104B580003445B0018887047505C00400430002014
:104B6800FFF7F0BF054B1B689BB203EBC000044B7B
:104B780003445B001868C0F309007047505C0040AC
:104B880006300020FFF7EEBFC3B2000A40EA032058
:104B980070470000044B0020044A18604FF43F435C
:104BA8001380034A13607047445C0040C42200200D
:104BB800405C004070B58AB0044600F0EDF9324B15
:104BC800054693F90060731C0AD02146204601F07F
:104BD8007BFF28B90021204601F06CFF034610B185
:104BE80028460AB070BD294A20460893019201F070
:104BF80059F9CDE90401CDE90201C6B9244B4FF0BA
:104C0800604220460021CDE9062301F02BFF002851
:104C180032D002230093684600F0DAFEA0B1089B68
:104C2800BBB9DDE9060101F02BFC0AB070BD194BD8
:104C3800002220460021CDE9062301F013FF68B1C8
:104C480002239E420093E6D101F074FF2223036001
:104C5800E5E701F06FFF089B0360E2E70123022EFE
:104C680000930BD101F066FF212303600A4800F08E
:104C7800B1FECDE90601D2E701230093684600F0B2
:104C8800A7FE0028F2D1EDE788060020A4C400089A
:104C9800FFFFEFC70000F0FF0CC600082DE9F04742
:104CA8008AB006460D4600F0B9FADFF8E8820446F5
:104CB80098F900707B1C3FD02946284601F004FF74
:104CC8008246002838D13146304601F0FDFE0021E9
:104CD8008146002840F09780304601F0C3FE002846
:104CE8002ED00021284601F0BDFE8246D0B1A34A4D
:104CF8000123304601920093CDF8209001F0D2F8BC
:104D0800CDE90201284601F0CDF800220023CDE9C3
:104D18000401CDE90623002F62D04FF07E500AB07F
:104D2800BDE8F087284600F0EFFE28B100212846AC
:104D380001F0A2FE00283AD120460AB0BDE8F0876B
:104D4800204600F0E1FE0746002878D000212046E2
:104D580001F088FE0028EFD0304600F0D5FE00288C
:104D6800EAD0284600F0D0FE0028E5D08349002389
:104D78000422304608930092019101F093F8CDE99E
:104D88000201284601F08EF898F900300024002529
:104D9800022BCDE90401CDE9064503D0684600F0B1
:104DA80017FE18BB01F0C6FE222303601EE0734AFB
:104DB8000123304600930192CDF820A001F072F84B
:104DC800CDE90201284601F06DF898F90030CDE9E7
:104DD8000401002B40F0908000220023CDE9062337
:104DE800684600F0F5FD002800F08180089B1BB1A3
:104DF80001F0A0FE089B0360DDE9060101F040FB1D
:104E08000AB0BDE8F087284601F02CFE002893D0B0
:104E18005A4A0123304601920093CDF820A001F0B0
:104E280041F8CDE90201284601F03CF8544B002234
:104E3800022FCDE90401CDE90623D1D16DE7304633
:104E480000F062FE002881D0284600F05DFE0028B0
:104E58003FF47CAF2146204601F036FE0346002889
:104E680074D146490322304608930092019101F01B
:104E780019F8CDE90201284601F014F898F9004024
:104E8800CDE90401002C3ED13E4B4FF06042304644
:104E98000021CDE9062301F0EFFD00283FF47EAFA5
:104EA80028464FF07C5101F049FC00F0FBFF044616
:104EB8000D4600F095FD02460B462046294601F0B6
:104EC800ADFA00283FD1304B4FF06042CDE90623C0
:104ED80098F90040022C7FF461AF63E71046194649
:104EE80001F05EF9022CCDE906017FF479AF01F0FB
:104EF80021FE2123036079E724490020022BCDE914
:104F08000601F4D06CE7224B002230460021CDE99F
:104F1800062301F0B1FD0028DCD028464FF07C5173
:104F280001F00CFC00F0BEFF04460D4600F058FDF1
:104F380002460B462046294601F070FA18B9134B71
:104F48000022CDE9062398F90040C3E70B4A012364
:104F5800304601920093089700F0A4FFCDE90201C2
:104F6800284600F09FFF98F90040CDE9040100228F
:104F78000023002CB2D1CDE9062331E7ACC40008E8
:104F88000000F03FFFFFEF47FFFFEFC70000F0FF13
:104F98000000F07F8806002020F000422DE9F0474D
:104FA8006AB30028014603464ADBB0F1FF4F3BDAFB
:104FB800B0F5000F3CDB00248C4AC3F316052A44E5
:104FC80002F40002DB1582F07E507F3B2344284325
:104FD8004FF07E5103EBD25401F0A6FA05F10F030E
:104FE800C3F316030F2B064631DC002101F03AFD0E
:104FF800002800F092804CB90020BDE8F08700211D
:105008004FF04C4001F04EFCBDE8F087204601F01F
:1050180041FB7749054601F091FB7649044628464D
:1050280001F08CFB0146204601F080FABDE8F087CC
:105038004FF0984101F082FB6FF018040346BBE77C
:1050480001F072FA002101F02DFCBDE8F0874FF065
:10505800804101F06BFA0146304601F023FC80469E
:10506800204601F017FB41468146404601F066FBA9
:105078000146824601F062FB07465F4901F05EFB8C
:105088005E4901F053FA394601F058FB5C4901F0DA
:105098004DFA394601F052FB5A4901F047FA514698
:1050A80001F04CFB58498246384601F047FB574906
:1050B80001F03CFA394601F041FB554901F036FA56
:1050C800394601F03BFB0146504601F02FFA514F9B
:1050D800C5F557132F4403F522731F43002F82464B
:1050E80065DD4FF07C51304601F028FB314601F078
:1050F80025FB0546002C32D12946504601F016FA08
:10510800414601F01BFB0146284601F00DFA014615
:10511800304601F009FABDE8F0873F49304601F012
:105128000DFB01464FF07C5001F0FEF93146054673
:10513800304601F003FB0146284601F0FFFA054618
:10514800002C2ED0204601F0A5FA2949074601F087
:10515800F5FA04463846274901F0F0FA14E02449E4
:10516800484601F0EBFA29460446504601F0DEF9BC
:10517800414601F0E3FA1F490746484601F0DEFAC6
:105188000146384601F0D2F90146284601F0CCF92B
:10519800314601F0C9F90146204601F0C5F9BDE8DC
:1051A800F0870146304601F0BFF9BDE8F0877CB1D1
:1051B8000F49484601F0C2FA51460446304601F00C
:1051C800B3F9414601F0BAFA0A4905464846C3E729
:1051D8000146304601F0A8F9414601F0AFFA014610
:1051E800304601F0A1F9BDE8F08700BF20FB4A0076
:1051F8008071313FD1F717379788173E25333A3EEC
:105208002549923EABAA2A3F4FD01C3E298E633EC9
:10521800CDCCCC3E305CCFFFABAAAA3E2DE9F04FF7
:1052280031F0004887B011D020F00049B9F1FF4FA4
:10523800824605DD514807B0BDE8F04F00F06CBC70
:10524800B8F1FF4F07DDB9F17E5FF3D14FF07E5023
:1052580007B0BDE8F08F00280C464ADB0025B8F1FE
:10526800FF4F3ED0B8F17E5F07460E4654D0B4F1EA
:10527800804F6BD0B4F17C5F1DD000F041FCB9F1D8
:10528800FF4F51D0B9F1000F4ED0B9F17E5F4BD02E
:105298004FEADA7A0AF1FF3255EA020366D0B8F12A
:1052A8009A4F6FDD364B994500F36182002CC0F2AE
:1052B80064820020CCE7BAF1000F4BDA00F020FC42
:1052C800B9F1FF4F02D0B9F1000FDED1A9F17E5933
:1052D80059EA050343D0012DBAD100F1004108462F
:1052E800B6E7B9F17E5FB1D02BDD002CE1DB0846D3
:1052F800AEE7B8F1974F22DAB8F17E5F0ADB4FEAE2
:10530800E853C3F1960348FA03F202FA03F3984507
:1053180000F028820025A5E7002C99DA01464FF015
:105328007E5001F0BFFA93E7002C04DA01464FF0F3
:105338007E5001F0B7FABAF1000F89DAC6E7022504
:105348008DE7002CB5DA01F1004081E7014601F054
:10535800F5F97DE707B0BDE8F04F00F0E5BA014682
:1053680001F0E2F8014601F09DFA71E73946384646
:1053780001F0DAF8014601F095FA69E70CC6000871
:10538800F7FF7F3FB9F5000F80F205824FF0974194
:10539800009201F0D3F98146009A6FF017014FEAA5
:1053A800E953B448C9F316097F3B0B4481451946B4
:1053B800009349F07E5740F3E581AF4B994540F3A0
:1053C8003E820023184603930B46013300930023C3
:1053D800A7F50007029001934FF07E5A51463846D0
:1053E800059201F0A1F851468346384601F09EF82F
:1053F80001464FF07E5001F055FA01460490584698
:1054080001F09CF97910019B41F00051B94601F572
:10541800802120F47F670B4427F00F071946804648
:105428003846019301F08AF90146584601F07CF8A4
:1054380051468346019801F077F80146484601F045
:1054480073F8394601F07AF90146584601F06CF8CC
:10545800049B194601F072F941468346404601F023
:105468006DF98146854901F069F9854901F05EF8D1
:10547800494601F063F9834901F058F8494601F0BB
:105488005DF9814901F052F8494601F057F97F4921
:1054980001F04CF8494601F051F97D4901F046F810
:1054A80049468246484601F049F90146504601F00E
:1054B80045F981463946404601F038F8594601F029
:1054C8003DF9494601F032F839468246384601F03E
:1054D80035F97049019001F029F8514601F026F894
:1054E80020F47F6929F00F094946384601F026F96A
:1054F80068490746484601F017F8019B194601F02C
:1055080013F80146504601F00FF8414601F016F92C
:1055180049468046584601F011F90146404601F0D7
:1055280005F882460146384601F000F820F47F6904
:1055380029F00F094846584901F000F939468046D4
:10554800484600F0F1FF0146504600F0EDFF534990
:1055580001F0F4F852490746484601F0EFF80146D1
:10556800384600F0E3FF029900F0E0FF0746009894
:1055780001F090F881463946404600F0D7FFDDF843
:105588000CB0594600F0D2FF494600F0CFFF20F496
:105598007F6A2AF00F0A4946504600F0C5FF59466F
:1055A80000F0C2FF414600F0BFFF0146384600F058
:1055B800BBFF8046059A24F47F6424F00F04013D64
:1055C80055EA02032146304614BF4FF07E57354F47
:1055D80000F0AAFF514601F0B1F8314605464046B1
:1055E80001F0ACF80146284600F0A0FF2146064627
:1055F800504601F0A3F880463046414600F096FF39
:10560800002881460446C24620F0004540F3018147
:10561800B5F1864F00F3CF8000F0BF80B5F17C5F15
:1056280000F3D1800025A94624F47F6424F00F04F8
:1056380020461D4901F082F851468046204600F078
:1056480073FF0146304600F06FFF184901F076F805
:1056580017490646204601F071F80146304600F029
:1056680065FF06460146404600F060FF4146044695
:1056780020E000BF71C41C00D6B35D0042F1533E68
:1056880055326C3E05A38B3EABAAAA3EB76DDB3EF6
:105698009A99193F000040400038763F4F38763FCE
:1056A800A0C39D36000080BF0072313F1872313FA1
:1056B8008CBEBF3500F038FF0146304600F034FF9D
:1056C80021468046204601F039F80646854901F012
:1056D80035F8854900F028FF314601F02FF8834955
:1056E80000F024FF314601F029F8814900F01CFF41
:1056F800314601F023F87F4900F018FF314601F0E8
:105708001DF80146204600F00FFF064601462046D8
:1057180001F014F84FF080418246304600F004FF53
:105728000146504601F0BEF841460646204601F0C3
:1057380005F8414600F0FAFE0146304600F0F4FE56
:10574800214600F0F1FE01464FF07E5000F0ECFEDD
:105758004319B3F5000FC0F2C0801846394600F06F
:10576800EDFF75E502F00102C2F102057AE5624B30
:1057780099456EDD002C7FF79CAD6049084600F026
:10578800DDFF65E500231946039300230193029189
:105798004FF07E5A22E6002101E65949304600F0D2
:1057A800C5FE41468246484600F0BEFE01465046C8
:1057B80001F080F938B13846504900F0BFFF4F4931
:1057C80000F0BCFF44E5ED154FF400037E3D43FABD
:1057D80005F52B19C3F3C7524A49C3F316097F3A93
:1057E800114149F40009C2F1170249FA02F9002CE3
:1057F80023EA01014046B8BFC9F1000900F094FE50
:1058080001468246304600F091FE4FEAC9550446EB
:105818000AE73D4B9D420ADC7FF400AF414600F0A9
:1058280083FE0146304601F031F90028CBD03846D6
:10583800364900F083FF354900F080FF08E5344B16
:105848004FF07F5A0393334B02934FF400130193A5
:10585800C4E54FF07E51009200F066FE2E490746DF
:1058680000F06CFF2D498046384600F067FF4FF086
:105878007A518146384600F061FF0146284800F019
:1058880053FE394600F05AFF01464FF07C5000F0B5
:105898004BFE39468246384600F050FF01465046D6
:1058A80000F04CFF1F4900F049FF0146484600F050
:1058B8003BFE01460746404600F038FE20F47F6A6A
:1058C8002AF00F0A4146504600F02EFE014638469F
:1058D80000F02AFE009A80466DE6494600F020F95D
:1058E8003CE700BF4CBB31330EEADD3555B38A388F
:1058F800610B363BABAA2A3E0700803FCAF24971CA
:105908003CAA3833FFFF7F00000016436042A20D17
:1059180000C0153FDCCFD13500AAB83F70A5EC36E2
:10592800ABAAAA3E3BAAB83F20F00042B2F1FF4F13
:1059380070B504462ED262B3002803463DDBB2F5AB
:10594800000F4FEAE0502CD3002631467F38C3F3CE
:105958001603C20743F4000348BF5B0040105B0016
:1059680019244FF080728D189D4202DC5B1BA91828
:105978001644013C4FEA43034FEA5202F3D113B1F4
:1059880006F001031E44761006F17C5606EBC05063
:1059980070BD70BD014600F0D1FE214600F0C6FD85
:1059A80070BD14F4000201D00EE00A465B001C0230
:1059B80002F10101F9D5801AC6E7014600F0B4FDED
:1059C800014600F06FFF70BD4FF0FF32F3E700BFF4
:1059D8000020704700200149704700BF0000F87F91
:1059E800F0B5C1F30A5EAEF2FF36132E83B002465D
:1059F8000B460C464FEAD17507462EDC002E49DBD4
:105A08003D49314103EA010010432BD049080B40BE
:105A180053EA02070CD04FF48023132E24EA010125
:105A280043FA06F444EA01040CBF4FF0004700278C
:105A3800324B214603EBC505D5E9004538462246D9
:105A48002B4600F0D1F8CDE90001DDE9000122463E
:105A58002B4600F0C7F803B0F0BD332E06DDB6F5CF
:105A6800806F45D01046194603B0F0BDAEF2134E14
:105A78004FF0FF3121FA0EF10842F3D049080842ED
:105A8800D6D04FF0804320EA010143FA0EFE4EEAD9
:105A98000107CDE721F0004101431946E4D0C3F3E3
:105AA800130343EA000CCCF1000343EA0C0C134B3C
:105AB800640C4FEA1C3C0CF4002C03EBC503640493
:105AC800D3E900674CEA040132463B4600F08CF803
